:100000000C949C000C94C4000C94C4000C94C40088
:100010000C94C4000C94C4000C94C4000C94C40050
:100020000C94C4000C94C4000C94C4000C94C40040
:100030000C94C4000C94C4000C94C4000C94C40030
:100040000C942D170C94C4000C949D170C947717E6
:100050000C94C4000C94C4000C94C4000C94C40010
:100060000C94CF170C94C40007634236B79BD8A7F3
:100070001A39685618AEBAAB558C1D3CB7CC5763CD
:10008000BD6DEDFD753EF6177231BF000000803F7B
:100090004E414E494E495459494E46CDCCCC3D0A6D
:1000A000D7233C17B7D13877CC2B329595E6241F50
:1000B000B14F0A000020410000C84200401C462009
:1000C000BCBE4CCA1B0E5AAEC59D747C3C3E5E2B1A
:1000D0003D3F2F5B5D3B2C2A225C001F1C1F1E1F17
:1000E0001E1F1F1E1F1E000000080002010000034B
:1000F00004070000000000000000000000002500D0
:1001000028002B0000000000240027002A0004041F
:1001100004040404040402020202020203030303AF
:10012000030301020408102040800102040810208B
:10013000010204081020EE1811241FBECFEFD8E0F2
:10014000DEBFCDBF27E0A4EBB2E001C01D92A93114
:10015000B207E1F712E0A0E0B1E0ECE6FFE402C094
:1001600005900D92A43BB107D9F710E0CCE9D0E09F
:1001700004C02197FE010E945E24CB39D107C9F744
:100180000E94A0190C94B4270C94000008950895BF
:1001900090E0FC01EE5DFE4F2491825F9E4FFC01DA
:1001A0008491882399F090E0880F991FFC01EC5FFF
:1001B000FE4FA591B491FC01E650FF4F85919491BB
:1001C0008FB7F894EC91E22BEC938FBF089590E0F9
:1001D000FC01EA51FF4F2491FC01EE5DFE4F34918A
:1001E000FC01E25FFE4FE491EE23C9F0222339F0D7
:1001F000233001F1A8F4213019F1223029F1F0E087
:10020000EE0FFF1FE650FF4FA591B4918FB7F89402
:10021000EC91611126C030953E233C938FBF089529
:100220002730A9F02830C9F0243049F780918000A8
:100230008F7D03C0809180008F7780938000DFCF17
:1002400084B58F7784BDDBCF84B58F7DFBCF809164
:10025000B0008F778093B000D2CF8091B0008F7DB7
:10026000F9CF3E2BDACF3FB7F89480914F039091AE
:100270005003A0915103B091520326B5A89B05C02D
:100280002F3F19F00196A11DB11D3FBFBA2FA92F15
:10029000982F8827BC01CD01620F711D811D911D12
:1002A00042E0660F771F881F991F4A95D1F708957E
:1002B0008F929F92AF92BF92CF92DF92EF92FF9276
:1002C0004B015C010E9433016B017C010E943301F0
:1002D0006C197D098E099F09683E7340810591055F
:1002E000A8F321E0821A9108A108B10888EEC80E8F
:1002F00083E0D81EE11CF11C81149104A104B10417
:1003000029F7FF90EF90DF90CF90BF90AF909F9034
:100310008F9008952FB7F89460914B0370914C0320
:1003200080914D0390914E032FBF0895AF92BF92DD
:10033000CF92DF92EF92FF920F931F93CF93DF93B1
:100340006C017B018B01040F151FEB015E01AE18E0
:10035000BF08C017D10759F06991D601ED91FC9102
:100360000190F081E02DC6010995892B79F7C5012F
:10037000DF91CF911F910F91FF90EF90DF90CF9081
:10038000BF90AF900895FC01538D448D252F30E030
:10039000842F90E0821B930B541710F0CF96089592
:1003A00001970895FC01918D828D981761F0A28DBF
:1003B000AE0FBF2FB11D5D968C91928D9F5F9F7385
:1003C000928F90E008958FEF9FEF0895FC01918D3B
:1003D000828D981731F0828DE80FF11D858D90E0A8
:1003E00008958FEF9FEF0895FC01918D228D892F45
:1003F00090E0805C9F4F821B91098F73992708952D
:100400008BEC95E00E94F40121E0892B09F420E0B7
:10041000822F089580E090E0892B29F00E9400024D
:1004200081110C9400000895FC01A48DA80FB92F30
:10043000B11DA35ABF4F2C91848D90E001968F730C
:100440009927848FA689B7892C93A089B1898C912B
:10045000837080648C93938D848D981306C002887A
:10046000F389E02D80818F7D80830895EF92FF9244
:100470000F931F93CF93DF93EC0181E0888F9B8DC7
:100480008C8D98131AC0E889F989808185FF15C081
:100490009FB7F894EE89FF896083E889F9898081A4
:1004A0008370806480839FBF81E090E0DF91CF9173
:1004B0001F910F91FF90EF900895F62E0B8D10E095
:1004C0000F5F1F4F0F731127E02E8C8D8E110CC004
:1004D0000FB607FCFACFE889F989808185FFF5CF4F
:1004E000CE010E941402F1CFEB8DEC0FFD2FF11D18
:1004F000E35AFF4FF0829FB7F8940B8FEA89FB898C
:1005000080818062CFCFCF93DF93EC01888D8823E9
:10051000B9F0AA89BB89E889F9898C9185FD03C066
:10052000808186FD0DC00FB607FCF7CF8C9185FF4B
:10053000F2CF808185FFEDCFCE010E941402E9CF7A
:10054000DF91CF910895EF92FF920F931F93CF9376
:10055000DF93EC0169813881432F50E02A81822F9B
:1005600090E0EBEDF0E021E0261730F47491870F76
:10057000911D2F5F3196F8CF633018F0337009F476
:1005800001966DE671E0469F9001479F300D569FA2
:10059000300D1124215031094D5F5F4F569547951D
:1005A00056954795240F351F280F391FA8E1B0E055
:1005B0000E9421242B817B018C01E20EF11C011D84
:1005C000111DA8019701ACE3B0E00E94DF232C814C
:1005D0007B018C01E20EF11C011D111DA801970188
:1005E0000E94DF23AB01BC019D81892F90E0B0E028
:1005F000A0E080589C4BA249B74C8A019B01080F90
:10060000191F2A1F3B1FC901B801DF91CF911F910C
:100610000F91FF90EF90089520910403260F332748
:10062000331F21323105ECF42091A105FC0190E04B
:1006300080E0243069F082E00895A09104032191C4
:10064000AC014C515D4FA40FB52FB11D2C930196F9
:10065000861798F380910403680F6093040380E089
:10066000089581E008951092A10581E08093A0058E
:1006700010927B0561E082E10E94E70061E083E186
:100680000E94E700E9EBF0E080818E7F808380812B
:100690008D7F808388E48093B80085E48093BC00DC
:1006A000089510925A05109259051092A8051092BB
:1006B000CA050E94330386EC90E09093580580931E
:1006C000570587EC90E09093560580935505089563
:1006D000CF93DF9391E09093E3028823B9F0C09128
:1006E000B800D091BA008091BC008A7B8093BC0096
:1006F00060E082E10E94E70060E083E10E94E700A1
:100700000E943303D093BA00C093B800DF91CF9119
:1007100008958F929F92AF92BF92CF92DF92EF9205
:10072000FF920F931F93CF93DF93D091CA05D132DD
:1007300008F0D7C0182FC091C9050E9433016B0182
:100740007C018091A10581116BC082E08093A1059D
:100750001093A0058FEF80939F0510929E05D09374
:100760009D05A9EAB5E0EDE7F5E080E0D81391C07A
:1007700010927C0580917C05CC0FC82BC0937C0522
:1007800080917B05813009F088C010927B050E9422
:1007900033016B017C0180917C058093BB008091CB
:1007A000A3059091A405A091A505B091A605892B5C
:1007B0008A2B8B2BA1F00E9433010091A30510918D
:1007C000A4052091A5053091A6056C197D098E0917
:1007D0009F09061717072807390708F442C08091B8
:1007E000BC0083FDD8CF85EC8093BC000E94330110
:1007F0006B017C018091A105823009F450C0809189
:100800009F058F3F09F46FC080919F05803209F4E6
:100810006CC080919F05803309F469C084E026C0D4
:100820008091A3059091A405A091A505B091A6057E
:10083000892B8A2B8B2B09F484CF0E943301809063
:10084000A3059090A405A090A505B090A6056C19ED
:100850007D098E099F0986169706A806B90608F035
:1008600070CF8091A2050E94680385E01092A805D0
:100870001092CA051092A705DF91CF911F910F9199
:10088000FF90EF90DF90CF90BF90AF909F908F90B0
:1008900008959D9191938F5F69CF85EEA5CF80914B
:1008A000A3059091A405A091A505B091A605892B5B
:1008B0008A2B8B2B09F49ECF0E9433010091A30554
:1008C0001091A4052091A5053091A6056C197D090C
:1008D0008E099F09061717072807390708F08ACFDE
:1008E000C0CF81E0C3CF80E0C1CF82E0BFCF83E043
:1008F000BDCFCF93DF93EC018B818823A1F088815A
:1009000091E09093A7058093C9051092A8051092D5
:10091000CA0581E00E94890391E0811190E0892F4E
:10092000DF91CF9108950E94510381E08B83CE0126
:100930000E947904982F8111E2CFF1CF8F929F927C
:10094000AF92BF92CF92DF92EF92FF920F931F93DD
:10095000CF93DF93D82FC62F142F613208F09CC09D
:100960000E9433016B017C018091A10581116FC050
:1009700081E08093A1051093A0059FEF90939F05C0
:1009800010929E059C0F90939D0580937C0580910D
:100990007C05DD0FD82BD0937C0580917B058130C1
:1009A00009F07CC010927B050E9433016B017C0131
:1009B00080917C058093BB008091A3059091A40554
:1009C000A091A505B091A605892B8A2B8B2BA1F0B0
:1009D0000E9433010091A3051091A4052091A50563
:1009E0003091A6056C197D098E099F090617170716
:1009F0002807390708F44CC08091BC0083FDD8CF8C
:100A000085EC8093BC000E9433016B017C018091D6
:100A1000A105813009F444C080919E058C1710F423
:100A2000C0919E05EDE7F5E0ABE5B5E080E08C1305
:100A300059C08C2FDF91CF911F910F91FF90EF90B4
:100A4000DF90CF90BF90AF909F908F90089580914E
:100A5000A3059091A405A091A505B091A605892BA9
:100A60008A2B8B2B09F480CF0E9433018090A30541
:100A70009090A405A090A505B090A6056C197D09DD
:100A80008E099F0986169706A806B90608F06CCF4E
:100A90008091A2050E946803C0E0CBCF85EEB1CF64
:100AA0008091A3059091A405A091A505B091A605FC
:100AB000892B8A2B8B2B09F4AACF0E94330100913A
:100AC000A3051091A4052091A5053091A6056C19E8
:100AD0007D098E099F09061717072807390708F0AF
:100AE00096CFD6CF91919D938F5FA1CF0895E0913E
:100AF0005A0580915905E81730F4F0E0E55AFA4FAD
:100B0000808190E008958FEF9FEF089590915A05AE
:100B1000809159052FEF3FEF981748F4E92FF0E047
:100B2000E55AFA4F208130E09F5F90935A05C90142
:100B300008958091590590915A05891B990B089544
:100B4000CF92DF92EF92FF920F931F93CF93DF9399
:100B50007C01CB018A012091A705222389F0EB01BA
:100B60006B01C40ED51ECC15DD0569F06991D70166
:100B7000ED91FC910190F081E02DC7010995F3CF33
:100B8000642F0E940C03C801DF91CF911F910F9138
:100B9000FF90EF90DF90CF900895CF93DF931F9257
:100BA000CDB7DEB769832091A7052223F9F0209104
:100BB000CA05203258F021E030E0FC013383228363
:100BC00090E080E00F90DF91CF9108958091A8058B
:100BD000E82FF0E0E755FA4F998190838F5F80937B
:100BE000A8058093CA0581E090E0ECCF61E0CE01DA
:100BF00001960E940C03F7CFFC01248131E0309371
:100C0000A7052093C9051092A8051092CA058485EE
:100C1000682B83EB96E00E94CD0581E00C9489035C
:100C200090E080E008958FB7F8948091DD028FBF47
:100C3000089561E0FC0184810E94E7008091DC025C
:100C400081111092DC0208958EBD00000DB407FEE4
:100C5000FDCF8EB508958FEF0C9424060F931F934C
:100C6000CF93DF93EC010E948A018B010E942B0637
:100C70008F3F69F00E948A01601B710B6C177D0722
:100C8000A8F380E0DF91CF911F910F91089581E04B
:100C9000F9CF8CBD9DBD0895CF93DF93EC0180917A
:100CA000DC02811109C081E08093DC02809168063A
:100CB000909169060E94490660E08C81DF91CF9196
:100CC0000C94E7008F929F92AF92BF92FF920F9386
:100CD0001F93CF93DF93EC01F62E49015A018E81C9
:100CE000882389F08F8198859C012F5F3F4F38873B
:100CF0002F838230924018F40E942B06F3CFCE014E
:100D00000E9419061E82CE010E944C068CE291E0E0
:100D10000E942E068F2D80640E94240608E110E0B8
:100D2000D501C401002E04C0B695A7959795879567
:100D30000A94D2F70E94240608501109083F8FEF49
:100D4000180771F785E9FF2021F028E087E8F21203
:100D50008FEF0E94240610E00E942B068A8787FFEF
:100D600004C01F3F11F01F5FF7CFDF91CF911F919C
:100D70000F91FF90BF90AF909F908F900895AF928A
:100D8000BF92CF92DF92EF92FF920F931F93CF9378
:100D9000DF93EC016901C801820F931F81309240FB
:100DA00050F58E81882379F088819981AA81BB8151
:100DB00084179507A607B70731F48F819885C81661
:100DC000D90608F042C0488359836A837B838B85A8
:100DD000833039F089E0440F551F661F771F8A95CD
:100DE000D1F79A01AB0161E1CE010E94620688232E
:100DF00089F083E08D83CE010E94190680E0DF91A7
:100E0000CF911F910F91FF90EF90DF90CF90BF9007
:100E1000AF9008950E948A015B010E942B068A8789
:100E20008F3F69F40E948A016A197B096D32714013
:100E3000A0F38FE08D83CE010E941906DCCF8E3F98
:100E400089F418861F8281E08E838F8198858C15A6
:100E50009D0550F40E942B068F81988501969887F6
:100E60008F83F3CF8DE0E6CF6701E00EF11E0E9485
:100E70002B06F60181936F01EE15FF05C1F78F81F7
:100E80009885080F191F18870F838985882319F003
:100E900001151240A0F08E81882389F08F819885FA
:100EA0009C012F5F3F4F38872F838230924018F488
:100EB0000E942B06F3CFCE010E9419061E8281E00C
:100EC0009ECFCF92DF92EF92FF920F93CF93DF935B
:100ED000EC01690182E1411551056105710599F047
:100EE0008B85833039F089E0440F551F661F771FCB
:100EF0008A95D1F79A01AB0168E1CE010E946206A2
:100F0000882319F084E08D832DC08EEF0E94240683
:100F100076018EEFD81AF70181917F010E94240695
:100F2000EC14FD04C1F78FEF0E9424068FEF0E949E
:100F300024060E942B068A878F71853071F4011177
:100F400016C0CE010E94190681E0DF91CF910F916A
:100F5000FF90EF90DF90CF90089581E18D83CE01D7
:100F60000E941906CE010E94190680E0EECF88E5A6
:100F700092E00E942E06811102C085E1C4CF20E0DC
:100F800030E0A9016DE0CE010E946206882311F0D5
:100F900084E1B9CF0E942B068111FACFD2CF0F93F3
:100FA0004091DF025091E0026091E1027091E20213
:100FB000411551056105710599F0082F23E533E0CE
:100FC00080915305909154050E946107882349F050
:100FD0001092DF021092E0021092E1021092E202FF
:100FE00081E00F9108950F93CF93C82F8091DE0277
:100FF000811105C0C1E08C2FCF910F9108954091D0
:1010000000015091010160910201709103010C2FC8
:1010100023E533E080915305909154050E946107C8
:10102000811102C0C0E0E7CFCC2321F381E00E9410
:10103000CF078823B9F31092DE02DDCF8F929F9203
:10104000AF92BF92EF92FF920F931F93CF934B01FA
:101050005C01C42F8091000190910101A0910201D7
:10106000B091030188159905AA05BB0551F181E0EE
:101070000E94F30781110BC080E0CF911F910F9167
:10108000FF90EF90BF90AF909F908F90089583E571
:10109000E82E83E0F82E00E012E030E020E0B50119
:1010A000A40180915305909154050E94BF068823A6
:1010B00019F38092000190920101A0920201B09276
:1010C00003014091DE024C2B4093DE0281E0D5CF3C
:1010D0008F929F92AF92BF92CF92DF92EF92FF9248
:1010E000CF932AE636E030935405209353058823A6
:1010F00009F46DC040E060E070E0CB010E941E0882
:1011000081110BC080E0CF91FF90EF90DF90CF90E6
:10111000BF90AF909F908F900895809111058F7729
:1011200089F780911D0590911E05A0911F05B09132
:10113000200584369105A105B10520F3C09019055D
:10114000D0901A05E0901B05F0901C05C114D10445
:10115000E104F104B9F240E0C701B6010E941E08A3
:10116000882381F280915E0390915F038115924004
:1011700049F6A0916303AA2329F26091610370915B
:1011800062036115710509F4BDCF2091600322232C
:1011900009F4B8CFA093880620937A0690E080E007
:1011A00030E0E1E0F0E0C82FAF01082E02C0440FAC
:1011B000551F0A94E2F72417350769F041E0480FFC
:1011C00001968930910579F7409383069BCFC12C16
:1011D000D12C7601C0CF8093830620916903309192
:1011E0006A0350E040E02115310541F42091770376
:1011F000309178034091790350917A0320937B06D4
:1012000030937C0640937D0650937E06460157013D
:10121000860E971EA11CB11C8092890690928A06A8
:10122000A0928B06B0928C06E0916403F091650366
:10123000F0938F06E0938E06B0E00E94DF23DC017E
:10124000CB01880D991DAA1DBB1D8093900690931C
:101250009106A0939206B093930625E0EE0FFF1F30
:101260002A95E1F7E150FE4FEF2FFF27E6958E0F0D
:101270009F1FA11DB11D8093840690938506A093A6
:101280008606B09387068090660390906703B12C22
:10129000A12C8114910441F4809073039090740305
:1012A000A0907503B0907603C81AD90AEA0AFB0A1F
:1012B000C80CD91CEA1CFB1C04C0F694E794D79414
:1012C000C794CA95D2F7C0927F06D0928006E0926A
:1012D0008106F092820685EFC8168FE0D806E104F9
:1012E000F10428F48CE080938D0681E00CCF80E13E
:1012F00025EFC2162FEFD206E104F104A0F380918E
:101300007F0390918003A0918103B0918203809329
:10131000900690939106A0939206B093930680E274
:10132000E2CF4F925F926F927F928F929F92AF9295
:10133000BF92CF92DF92EF92FF920F931F93CF93C2
:10134000DF93EC01423051056105710590F480E0B6
:10135000DF91CF911F910F91FF90EF90DF90CF9091
:10136000BF90AF909F908F907F906F905F904F90C5
:10137000089589859A85AB85BC850196A11DB11D0F
:1013800084179507A607B70710F3CB88DC88ED888C
:10139000FE888F89803109F042C0BB27A72F962F86
:1013A000852F480159012A013B01C80ED91EEA1EAA
:1013B000FB1E8091000190910101A0910201B0916A
:1013C0000301C816D906EA06FB0699F58F89803114
:1013D000C1F5B301A201552766277727440F551F92
:1013E0004D5A5C4FFA01918280828091DE028160C9
:1013F0008093DE028A89823080F08D819E81AF8168
:10140000B8858C0D9D1DAE1DBF1D8093DF0290938E
:10141000E002A093E102B093E20281E099CFDB0108
:10142000CA01E7E0B695A79597958795EA95D1F714
:10143000B8CF40E0C701B6010E941E088111C6CF97
:1014400086CFB301A2014F77552766277727440F30
:10145000551F440F551F4D5A5C4FFA0180829182EF
:10146000A282B382C2CF8F929F92AF92BF92CF924D
:10147000DF92EF92FF920F931F93CF93DF93FC01C4
:1014800081859285A385B4850196A11DB11D841720
:101490009507A607B70770F480E0DF91CF911F9101
:1014A0000F91FF90EF90DF90CF90BF90AF909F9003
:1014B0008F90089583889488A588B688878980311D
:1014C00089F5BB27A72F962F852FE9016A017B019C
:1014D0008F01BC01CD01680D791D8A1D9B1D809077
:1014E000000190900101A0900201B09003018616C6
:1014F0009706A806B90601F5F8018789803111F52C
:10150000DD24EE24FF24F601EE0FFF1FED5AFC4F01
:1015100080819181B0E0A0E088839983AA83BB8316
:1015200081E0BBCFDB01CA01C7E0B695A7959795CF
:101530008795CA95D1F7C9CF40E00E941E08811156
:10154000DBCFAACFE894C7F8DD24EE24FF24F60110
:10155000EE0FFF1FEE0FFF1FED5AFC4F80819181B0
:10156000A281B381BF70D8CF4F925F926F927F926A
:10157000AF92BF92CF92DF92EF92FF920F931F93A1
:10158000CF93DF9300D000D0CDB7DEB78C01498375
:101590005A836B837C835901C12CD12C7601412C59
:1015A00082E0582E612C712C49815A816B817C819B
:1015B0009E012F5F3F4FC8010E94330A882339F1F3
:1015C000F8018585A301920104C0220F331F441F37
:1015D000551F8A95D2F7DA01C901C80ED91EEA1E35
:1015E000FB1E49815A816B817C818789803111F191
:1015F00088EF9FEFAFEFBFE0481759076A077B07F7
:1016000098F2F501C082D182E282F38281E00F90EC
:101610000F900F900F90DF91CF911F910F91FF903E
:10162000EF90DF90CF90BF90AF907F906F905F90E2
:101630004F90089588EF9FEFA0E0B0E0DDCFCF930B
:10164000DF93FC012581222321F080E0DF91CF91FF
:101650000895EC0180918D06803159F582E08583F3
:10166000178A108E118E128E80918E0690918F06A1
:10167000B0E0A0E025E0880F991FAA1FBB1F2A95A4
:10168000D1F7838B948BA58BB68B86E796E09C8FE6
:101690008B8F81E08C831E821F82188619861A86A2
:1016A0001B861C861D861E861F86188A198A1A8A22
:1016B000CDCF803251F683E08583409190065091E2
:1016C00091066091920670919306478B508F618FBF
:1016D000728F9F012D5E3F4F86E796E00E94B40A0D
:1016E0008111D3CFB2CF8F929F92AF92BF92CF9200
:1016F000DF92EF92FF920F931F93CF93DF93EC0152
:101700008D8181110EC080E0DF91CF911F910F91EB
:10171000FF90EF90DF90CF90BF90AF909F908F9011
:1017200008950B891C892D893E8904171507260702
:10173000370748F34A015B01823031F48A869B8681
:10174000AC86BD8681E0E0CF81149104A104B10490
:1017500049F41E821F82188619861A861B861C86EB
:101760001D86F0CF0A851B852C853D85EB8DFC8D74
:10177000858590E00996B901A80141505109610998
:101780007109082E04C076956795579547950A9478
:10179000D2F775016401E1E0CE1AD108E108F10841
:1017A00004C0F694E794D794C7948A95D2F7C416E8
:1017B000D506E606F70620F0012B022B032B11F5C8
:1017C0008F89988DA98DBA8D8E839F83A887B987BD
:1017D0008E010A5F1F4FC114D104E104F10409F422
:1017E000ADCF4E815F816885798598018B8D9C8D09
:1017F0000E94330A91E0C91AD108E108F108811169
:10180000EACF81CFC41AD50AE60AF70AE1CF3F92A0
:101810004F925F926F927F928F929F92AF92BF9200
:10182000CF92DF92EF92FF920F931F93CF93DF93AC
:10183000CDB7DEB72C970FB6F894DEBF0FBECDBF85
:101840005C01DC015B968D909C905C9716964D90A8
:101850005D906D907C90199741145104610471045E
:1018600009F468C0BFEF4B1A5B0A6B0A7B0A312C84
:10187000F40181859285A385B4859C01AD012F5F1C
:101880003F4F4F4F5F4F29873A874B875C877301E4
:1018900062011D821E821F821886F4018185928555
:1018A000A385B4852D813E814F815885281739073E
:1018B0004A075B0708F056C089859A85AB85BC85C9
:1018C0008C159D05AE05BF0550F482E0C82ED12CC5
:1018D000E12CF12C92E0492E512C612C712C9E01AF
:1018E0002F5F3F4FB701A601C4010E94330A88232E
:1018F000C9F189819A81AB81BC81892B8A2B8B2B81
:1019000009F1260137019FEF491A590A690A790A34
:101910002D813E814F8158852F5F3F4F4F4F5F4F45
:101920002D833E834F8358873FEFC31AD30AE30AC0
:10193000F30AB3CFF4014080518062807380332476
:10194000339496CFC414D504E604F70409F70FEFD7
:101950001FEF2FEF3FE0B701A601C4010E949109DC
:10196000811119C080E02C960FB6F894DEBF0FBE2F
:10197000CDBFDF91CF911F910F91FF90EF90DF903E
:10198000CF90BF90AF909F908F907F906F905F901F
:101990004F903F900895D50116964D915D916D91B0
:1019A0007C911997411551056105710539F0970131
:1019B0008601C4010E9491098823A1F2D5011696DF
:1019C000CD92DD92ED92FC921997332051F0D70120
:1019D000C6010196A11DB11DF40180839183A283EC
:1019E000B383F5018789908DA18DB28D892B8A2BC8
:1019F0008B2B39F48481C78AD08EE18EF28E806879
:101A00008483F50184818062848381E0ACCF1F935D
:101A1000CF93DF93FC0125812223D1F1162FEC0116
:101A2000848187FF2AC0668577858089918941E016
:101A30000E941E08882361F1EA8980E2E89FF00194
:101A40001124ED5AFC4F309719F18D81823040F40A
:101A50008B899C89AD89BE89848F958FA68FB78F1E
:101A60008F89988D938F828F8F89988DA98DBA8D4C
:101A7000B58BA48B8C818F778C83111103C08C81E3
:101A80008F7E8C83812FDF91CF911F910C94F30770
:101A900080E0DF91CF911F910895FF920F931F93E4
:101AA000CF93DF93EC018D81813041F090E080E0B5
:101AB000DF91CF911F910F91FF9008958C8181FF4D
:101AC000F5CF82FD1BC00091530510915405C8014C
:101AD0000E944C060E942B06F82EC8010E9419068F
:101AE0008FEFF812E3CF8C8185FF1BC060E0CE0141
:101AF0000E94070D8C818F7D8C83D8CF4B895C89A8
:101B00006D897E898A859B85AC85BD8584179507FF
:101B1000A607B707C1F2CE010E94730B8111D3CF84
:101B2000C5CF4091DF025091E0026091E1027091D7
:101B3000E202452B462B472B21F080E00E94CF0785
:101B4000B5CF80618C832A853B85317080E092E03F
:101B5000821B930BADCFCF93DF93EC0161E00E942A
:101B6000070D882311F01D8281E0DF91CF91089548
:101B70002F923F924F925F926F927F928F929F929D
:101B8000AF92BF92CF92DF92EF92FF920F931F938B
:101B9000CF93DF9300D000D01F92CDB7DEB77C018A
:101BA0005B01342E5D83DC0115968C911597813095
:101BB00009F0CEC014962C9021FECAC022FCB4C0FD
:101BC000C32CDD8022947FE027222094B22DB170B7
:101BD0002B2ED7011A964D915D916D917C911D9799
:101BE000C114D10409F428C15B968D919C915C9736
:101BF000FC0174807A948A019B0169E036952795EF
:101C0000179507956A95D1F770228A0111707110A6
:101C100020C001151105E9F416964D915D916D9165
:101C20007C911997411551056105710509F099C01D
:101C300057968D919D910D90BC91A02D0097A10577
:101C4000B10509F0B0C0C7010E94070C882309F450
:101C50007FC080E092E0801B910B46018C159D05B2
:101C600008F44C01D7015B964D915C915C971696F8
:101C70008D919D910D90BC91A02D0297A109B10964
:101C8000FA01258504C0880F991FAA1FBB1F2A953A
:101C9000D2F74685578560897189840F951FA61FE5
:101CA000B71F9C01AD01270D311D411D511D29019B
:101CB0003A01811432E0930609F07BC08091000163
:101CC00090910101A0910201B09103018415950545
:101CD000A605B70559F48FEF9FEFDC018093000153
:101CE00090930101A0930201B0930301022D95018D
:101CF000B301A20180915305909154050E946107A0
:101D0000882331F19EEFB91AC818D908F7018285E6
:101D10009385A485B585880D991DA11DB11D828768
:101D20009387A487B58755CFF7014389548965897F
:101D3000768982859385A485B585481759076A07F2
:101D40007B0709F43DCFC7010E94730B811138CF87
:101D500081E090E0D70113969C938E93129780E0D8
:101D600007C09E012F5F3F4F0E94330A811102C0BE
:101D700090E079C089819A81AB81BC81F701238D84
:101D8000348DF901278948EF5FEF60E070E0203182
:101D900021F048EF5FEF6FEF7FE084179507A6070C
:101DA000B70708F050CFF70186839783A087B187E4
:101DB00050CF0115110599F5D7011A964D915D91F6
:101DC0006D917C911D9753968D919D910D90BC9135
:101DD000A02D481759076A077B0708F181E00E9488
:101DE000F307882309F4B4CF409200015092010117
:101DF00060920201709203018091DE028160809303
:101E0000DE02C8018D5A9C4FD5019C01280D391D59
:101E1000FC012E173F0759F04D914193FACF41E055
:101E2000C301B2010E941E088111EBCF91CF281B84
:101E3000390BA20EB31E68CFF70183899489A58957
:101E4000B68984179507A607B70738F48481438BB2
:101E5000548B658B768B80688483F701848183FD46
:101E60001AC0832D9D810F900F900F900F900F90AF
:101E7000DF91CF911F910F91FF90EF90DF90CF9066
:101E8000BF90AF909F908F907F906F905F904F909A
:101E90003F902F90089561E0C7010E94070D8823AD
:101EA00009F456CFDECFCF93DF931F92CDB7DEB7C5
:101EB000698341E050E0BE016F5F7F4F0E94B80D23
:101EC0000F90DF91CF910895FC01DB0112968D9167
:101ED0009C911397938382838AE391E0918380831B
:101EE00014968C911497848315968C9115978583FD
:101EF00016964D915D916D917C911997468357830C
:101F0000608771871A964D915D916D917C911D97B7
:101F100042875387648775871E964D915D916D91B9
:101F20007C91519746875787608B718B52968C9125
:101F30005297828B53964D915D916D917C915697FE
:101F4000438B548B658B768B57964D915D916D913C
:101F50007C915A97478B508F618F728F5B968D91D2
:101F60009C91948F838F08950895FC01818D928DAB
:101F7000009719F061E00C94070D0895DC01599663
:101F8000ED91FC913097B9F083899489A589B68940
:101F90004285538564857585841B950BA60BB70B0D
:101FA000811520E89207A105B10538F08FEF9FE772
:101FB000A0E0B0E0089590E080E00895DC0159963B
:101FC0008D919C91009739F0DC01ED91FC9104809A
:101FD000F581E02D099490E080E00895CF93DF93A0
:101FE000EC01E98DFA8D309749F481E090E09B8314
:101FF0008A8390E080E0DF91CF910895138212826E
:10200000898D9A8D0E94B80DE98DFA8D22813381D8
:10201000232B59F7F0CFCF93DF931F92CDB7DEB7C5
:102020006983DC01ED91FC910280F381E02D41E0B8
:1020300050E0BE016F5F7F4F09950F90DF91CF9108
:1020400008952F923F924F925F926F927F928F925C
:102050009F92AF92BF92CF92DF92EF92FF920F9337
:102060001F93CF93DF9300D01F92CDB7DEB7FC0153
:102070008581811118C08FEF9FEF0F900F900F9007
:10208000DF91CF911F910F91FF90EF90DF90CF9054
:10209000BF90AF909F908F907F906F905F904F9088
:1020A0003F902F900895848180FFE5CF4389548924
:1020B0006589768982859385A485B585312C212C07
:1020C000481759076A077B0719F022242394312CFB
:1020D0006F012101CE0101963C01DF011696BB8301
:1020E000AA834114510409F4C5C0F6014285538501
:1020F000648575854A01F1E09F22D6015B968D913A
:102100009C915C978A019B01E9E03695279517958C
:102110000795EA95D1F71596EC91E230E9F5FC01C7
:10212000628D738D848D958D600F711F821F931F3B
:10213000A12C22E0B22EA818B9084A145B0408F4B6
:102140005201F601248126FD04C0A114F2E0BF066D
:1021500071F4009100011091010120910201309170
:102160000301061717072807390709F05EC040E08A
:102170000E941E08882309F47ECFC4018D5A9C4F0B
:10218000D3019C012A0D3B1DFC012E173F0709F4CA
:102190006CC041914D93F9CFDC011496BC90BA9478
:1021A000B0228114910479F4B1100DC0452B462B57
:1021B000472B69F5F6018789908DA18DB28D8683B5
:1021C0009783A087B187D6015B96ED91FC915C97D0
:1021D00016966D917D918D919C9119976250710920
:1021E00081099109258504C0660F771F881F991FF3
:1021F0002A95D2F70685178520893189600F711FCE
:10220000821F931F6B0D711D811D911D91CFD601F2
:1022100016964D915D916D917C9119972A813B8124
:102220000E94330A8111CFCF26CF7301850194011B
:10223000AB01BC0180915305909154050E94BF06EB
:10224000882309F418CF6A0C7B1CF60182859385DC
:10225000A485B5858A0D9B1DA11DB11D828793871D
:10226000A487B5874A185B083CCF281B390B620E40
:10227000731EEBCF2A94232809F0FDCE898190E0CC
:10228000FCCEFC01818D928D009711F00C942110F1
:102290008FEF9FEF08950F931F93CF93DF93EC0180
:1022A000898D9A8D10E000E0009799F00E9421102E
:1022B0008C010F3F100769F0898D9A8DFC014285D2
:1022C00053856485758541505109610971090E94E2
:1022D000730BC801DF91CF911F910F9108950F9358
:1022E0001F93CF938C01C62F0E94FC056C2F646056
:1022F000C8010E94FC056C2F6B7FC8010E94FC0581
:1023000083EC90E00197F1F7CF911F910F91089521
:102310000F931F93CF93DF938C01D62FC42F607F31
:10232000642B0E946F1180E1D89FB00111246C2BA7
:10233000C801DF91CF911F910F910C946F11CF9332
:10234000DF93CDB7DEB728970FB6F894DEBF0FBE88
:10235000CDBF98E0EAE0F1E0DE01119601900D9228
:102360009A95E1F79091F406981708F48FEF90E0B2
:10237000880F991F21E030E02C0F3D1F820F931F23
:10238000FC016081606840E08CEE96E028960FB614
:10239000F894DEBF0FBECDBFDF91CF910C948811B2
:1023A00040E061E08CEE96E00E9488118BE39FE1B3
:1023B0000197F1F78091F506882319F080E00C94DD
:1023C0009F11089541E00E94881181E090E00895F6
:1023D000CF92DF92EF92FF921F93CF93DF93EC01A6
:1023E00080E2689FF0011124ED5AFC4F93859171B2
:1023F00061F0842F827449F080E0DF91CF911F91CA
:10240000FF90EF90DF90CF900895142F6A8B80910A
:10241000000190910101A0910201B09103018E870A
:102420009F87A88BB98BC488D588F12CE12C7601C5
:10243000DD24CC24CF8AD88EE98EFA8E828D938DBE
:10244000B0E0A0E0AC01BD014C295D296E297F29D7
:102450004F8B588F698F7A8F83858871B1F4848D03
:10246000958DA68DB78D8B8B9C8BAD8BBE8B81E0B4
:102470008D831F701C831E821F82188619861A8600
:102480001B861C861D8681E0B8CF803109F0B4CF51
:102490009E012D5E3F4F8B8D9C8D0E94B40A882338
:1024A00009F4AACF84E0E4CFFB0101900020E9F712
:1024B0003197AF01461B570BDC01ED91FC91028077
:1024C000F381E02D0994CF93DF93EC018A859B85FE
:1024D000288131E03093A7052093C9051092A80503
:1024E0001092CA050E94541281E00E9489031F8243
:1024F000DF91CF91089569E871E085E097E00E944F
:10250000631269E871E089EF96E00C9463128F9290
:102510009F92AF92BF92EF92FF920F931F93CF9330
:10252000DF93CDB7DEB7A1970FB6F894DEBF0FBE2D
:10253000CDBF7C01FA01CB0119A2223008F42AE0B8
:102540008E010F5D1F4F822E912CB12CA12CBF014B
:10255000A50194010E943C24F901CA016A300CF5DE
:10256000605DD8016E938D01232B242B252B79F7E9
:1025700090E080E0109721F0BD01C7010E94541245
:10258000A1960FB6F894DEBF0FBECDBFDF91CF91FD
:102590001F910F91FF90EF90BF90AF909F908F9001
:1025A0000895695CDECF462F50E070E060E02AE0DD
:1025B0000C9487122F923F924F925F926F927F926C
:1025C0008F929F92AF92BF92CF92DF92EF92FF9243
:1025D0001F93CF93DF93EC016A017B01722EAB0155
:1025E0009601CB01B6010E944E2660E671E0811192
:1025F00026C046015701E894B7F82FEF3FEF4FE7A9
:102600005FE7C501B4010E944E2681110CC02FEF77
:102610003FEF4FE75FE7C501B4010E94B82264E6CF
:1026200071E0181664F02FEF3FEF4FE75FE4C7014A
:10263000B6010E94D3251816B4F468E671E0CE0105
:10264000DF91CF911F91FF90EF90DF90CF90BF90DF
:10265000AF909F908F907F906F905F904F903F9042
:102660002F900C9454122FEF3FEF4FE75FECC70110
:10267000B6010E94B82287FDE0CF20E030E0A9013A
:10268000C701B6010E94B822312C212C87FF0DC052
:10269000E881F9810190F081E02D6DE2CE0109958C
:1026A0001C01F7FAF094F7F8F09410E060E070E0A5
:1026B00080E09FE3711641F020E030E040E251E419
:1026C0000E94D1241F5FF6CFA70196010E946524C6
:1026D0002B013C010E947D254B015C012AE0BC01DD
:1026E000A401CE010E9487127C01E20CF31C11238D
:1026F000E1F1C501B4010E94BD229B01AC01C301FF
:10270000B2010E9464244B015C01E881F9810190CF
:10271000F081E02D6EE2CE010995E80EF91E115010
:1027200020F120E030E040E251E4C501B4010E9414
:102730001E232B013C010E947D254B01B12CA12CB5
:102740002AE0B501A401CE010E948712E80EF91E0D
:10275000C501B4010E94BD229B01AC01C301B201BD
:102760000E9464244B015C01DACFC701DF91CF9155
:102770001F91FF90EF90DF90CF90BF90AF909F9010
:102780008F907F906F905F904F903F902F90089523
:102790000F931F93CF93DF93EC010E9454128C018F
:1027A0006CE671E0CE010E945412800F911FDF9100
:1027B000CF911F910F9108956115710511F00C943F
:1027C000541290E080E00895CF92DF92FF920F9331
:1027D0001F93CF93DF93EC016B01142F50E070E057
:1027E00060E0C6010E9493276FEF610F41E088818E
:1027F0000E949E0410925A05809359058A859B85F4
:10280000DC01ED91FC910284F385E02D09958C01AA
:10281000F12C8A859B85DC01ED91FC910084F1858A
:10282000E02D0995892B89F08A859B85DC01ED9146
:10283000FC910284F385E02D0995882331F0F6019F
:10284000EF0DF11D8083F394E4CF112702301105C1
:10285000E1F06CF401301105A9F088859985DF91CC
:10286000CF911F910F91FF90DF90CF9008950E3F71
:10287000110571F083E090E00F3F110571F7998722
:102880008887EBCF19861886E8CF81E090E0F7CFF4
:1028900082E090E0F4CF85ED8093BC008091A305A9
:1028A0009091A405A091A505B091A6050796A11D3C
:1028B000B11D23E0B695A795979587952A95D1F7F1
:1028C0002091BC0024FD03C01092A1050895409101
:1028D000A3055091A4056091A5057091A605452B0F
:1028E000462B472B69F30097A105B10541F02AE279
:1028F0002A95F1F700C00197A109B109E1CF8091B4
:10290000A2050C9468033F924F925F926F927F9260
:102910008F929F92AF92BF92CF92DF92EF92FF92EF
:102920000F931F93CF93DF93CDB7DEB72B970FB6DF
:10293000F894DEBF0FBECDBF7C01FE013196CE0103
:102940000C966F0130E23193E817F907E1F7DA01ED
:1029500030E087E09D91B92E992309F43CC09E3266
:10296000F1F48A30C9F480E02B960FB6F894DEBFFC
:102970000FBECDBFDF91CF911F910F91FF90EF90D0
:10298000DF90CF90BF90AF909F908F907F906F908F
:102990005F904F903F90089538E08AE0DBCFEBECFA
:1029A000F0E04491442321F031969413FACFDBCF29
:1029B0008317C8F24FED490F4E35A8F64FE9490F7E
:1029C0004A3118F440EEB42EB90EF601E30FF11DB2
:1029D000B0823F5FBFCF8981803229F2322E8B01D6
:1029E000DB015B968D919C915C97F701948F838FAF
:1029F00016961D921D921D921C921997FB0112862C
:102A0000138614861586F80182859385A485B5857D
:102A1000438954896589768984179507A607B7077E
:102A200008F04DC025E0B695A795979587952A950E
:102A3000D1F7F82FFF70AF2ED80115968C91823008
:102A400008F491CFC8010E94211097FD8CCFF801A6
:102A500082859385A485B5854F96A11DB11D82877A
:102A60009387A487B587F0E2AF9EB00111246D5A19
:102A70007C4F6115710509F476CFDB018C918823B9
:102A800041F0853E09F062C0BB2029F0BB24B3941D
:102A9000BACFB1100EC0F701A28A809100019091C7
:102AA0000101A0910201B091030186879787A08B55
:102AB000B18BDB018C918111E9CFBB24B394832DC1
:102AC0008271823109F04FCFBB2009F44DC0F7016C
:102AD000668577858089918941E00E941E08882358
:102AE00009F441CFD70152968C91B0E28B9FC0017F
:102AF00011248D5A9C4F009709F435CFFC013A966A
:102B000026E1DF011D922A95E9F72BE0F601DC01B1
:102B100001900D922A95E1F721E238E2FC01318B18
:102B2000208B40E058E057874687338B228B318FCC
:102B3000208F578B468B81E00E94F307882309F48E
:102B400012CF432DD70152966C910AC04BE050E052
:102B5000C6010E948627892B09F055CF432D6A2D87
:102B6000C7010E94E81100CFF8018581823009F485
:102B7000FACEC8010E94070C882309F4F4CED801CC
:102B80005B96ED91FC915C9716968D909D90AD9023
:102B9000BC901997B2E08B1A9108A108B1088585FD
:102BA00004C0880C991CAA1CBB1C8A95D2F7868588
:102BB0009785A089B189880E991EAA1EBB1E8481A3
:102BC00024013501480E511C611C711C84149504AC
:102BD000A604B70409F1E1E04E1A51086108710832
:102BE00081E00E94F307882309F4BDCEE3E5F3E01A
:102BF000119283E595E08E179F07D1F7409200016F
:102C00005092010160920201709203018091DE02F4
:102C100081608093DE02DACFD8015B96ED91FC9162
:102C2000258580E092E0A0E0B0E004C0880F991F05
:102C3000AA1FBB1F2A95D2F7F801438954896589D9
:102C40007689840F951FA61FB71F838B948BA58B46
:102C5000B68BD70152961C9283E593E04FCFEF924B
:102C6000FF920F931F93CF93DF93EC017B018A01B7
:102C70001B821A8288EE93E0A0E0B0E08C839D83F3
:102C8000AE83BF8386E491E0998388838DE190E0F1
:102C90000E9461269A8F898F009779F02DE1F701C4
:102CA000DC0101900D922A95E1F74CE050E0B8016B
:102CB000CE010C960E94A527188EDF91CF911F910F
:102CC0000F91FF90EF9008954F925F926F927F92D5
:102CD0008F929F92AF92BF92CF92DF92EF92FF922C
:102CE00040E26CEB72E085E097E00E94E4136FE64F
:102CF00071E08CEB92E00E941B219093490380933A
:102D000048036FE671E090E080E00E941B21909301
:102D10003103809330036FE671E090E080E00E9421
:102D20001B2144E164E373E089EF96E00E94E41321
:102D300080913003909131030E9417216093B80273
:102D40007093B9028093BA029093BB0280914803BA
:102D5000909149030E9417216093B4027093B502C9
:102D60008093B6029093B70284E393E00E94172108
:102D70004B015C01C090B802D090B902E090BA0259
:102D8000F090BB0220E030E04DE851E4C701B6010D
:102D90000E941E232B013C012DE33AE043E753E45C
:102DA000C701B6010E9465249B01AC01C301B201B9
:102DB0000E94D1240E944B252B013C0120E030E0F1
:102DC00048EC52E46091B4027091B5028091B60271
:102DD0009091B7020E94D1246B017C0124E330E87A
:102DE00043EC50E4C301B2010E941E239B01AC01DD
:102DF000C701B6010E941E2320E030E54DE754E4F0
:102E00000E94D12420E034E244E759E40E941E23CA
:102E100060932C0370932D0380932E0390932F03C4
:102E200020E030E44CE156E4C501B4010E941E23C9
:102E3000609328037093290380932A0390932B03B4
:102E4000FF90EF90DF90CF90BF90AF909F908F90CA
:102E50007F906F905F904F9008951F920F920FB6E2
:102E60000F9211242F933F938F939F93AF93BF9310
:102E700080914B0390914C03A0914D03B0914E0370
:102E800030914A0323E0230F2D3758F50196A11DF9
:102E9000B11D20934A0380934B0390934C03A0935E
:102EA0004D03B0934E0380914F0390915003A09136
:102EB0005103B09152030196A11DB11D80934F03A0
:102EC00090935003A0935103B0935203BF91AF91DD
:102ED0009F918F913F912F910F900FBE0F901F9058
:102EE000189526E8230F0296A11DB11DD2CF1F927F
:102EF0000F920FB60F9211242F933F934F935F932E
:102F00006F937F938F939F93AF93BF93EF93FF93B1
:102F10008BEC95E00E941402FF91EF91BF91AF916D
:102F20009F918F917F916F915F914F913F912F91E1
:102F30000F900FBE0F901F9018951F920F920FB613
:102F40000F9211242F938F939F93EF93FF93E09110
:102F5000DB05F091DC058081E091E105F091E2056F
:102F600082FD1BC090818091E4058F5F8F7320915B
:102F7000E505821741F0E091E405F0E0E553FA4FF2
:102F8000958F8093E405FF91EF919F918F912F9101
:102F90000F900FBE0F901F9018958081F4CF1F9255
:102FA0000F920FB60F9211242F933F934F935F937D
:102FB0006F937F938F939F93AF93BF93EF93FF9301
:102FC0008091B900887F803609F44AC0F0F58832D4
:102FD00009F4A7C018F5803109F49BC0B8F4882320
:102FE00009F4F9C0883009F494C0FF91EF91BF91C2
:102FF000AF919F918F917F916F915F914F913F9191
:103000002F910F900FBE0F901F901895883109F4E3
:1030100088C0803251F780939F0514C0803409F432
:103020009DC040F48033B9F38833F9F680939F054F
:1030300085ECB0C0803509F485C0883509F496C0A8
:10304000883499F60E944B14D0CF883909F48CC08B
:1030500038F5883729F050F4883611F0803729F692
:1030600083E08093A1051092260357C0883809F4A5
:103070007BC0803919F0803809F0B7CF80912603E2
:10308000803208F071C0E091260381E08E0F8093BA
:1030900026038091BB00F0E0EA5FFC4F80833DC0D7
:1030A000803B39F0E0F4803A09F479C0883A09F0BD
:1030B0009CCF84E08093A105109205031092040335
:1030C000E0915705F091580509958091040381110D
:1030D0000FC081E0809304031092E40209C0803C99
:1030E00009F4A6CF883C09F4A3CF883B09F07DCF33
:1030F000E091050381E08E0F80930503F0E0EC5131
:10310000FD4F80818093BB00909105038091040363
:1031100029C080917C058093BB0085EC8093BC0026
:1031200064CF90919E0580919D05981758F5E09188
:103130009E0581E08E0F80939E05F0E0E358FA4FE4
:103140008081E9CFE0919E0581E08E0F80939E05FE
:103150008091BB00F0E0E358FA4F808390919E0588
:1031600080919D059817C8F285E8D8CFE0919E051B
:1031700081E08E0F80939E058091BB00F0E0E358C4
:10318000FA4F80838091A00581115CCF81E080930C
:103190007B0584EA8093BC001092A10526CF85ECC4
:1031A0008093BC001092A10580912603803230F4F8
:1031B000E0912603F0E0EA5FFC4F10826091260365
:1031C00070E0E0915505F091560586E093E0099591
:1031D000109226030ACF10929F0534CF0F931F93AE
:1031E000EBECF5E01382128248EE53E060E070E011
:1031F000448355836683778386E191E0918380835E
:1032000085EC90E09587848784EC90E097878687AB
:1032100080EC90E0918B808B81EC90E0938B828BA3
:1032200082EC90E0958B848B86EC90E0978B868B7C
:10323000118E128E138E148EA3EBB6E013961C9291
:103240001E92129714964D935D936D937C931797EE
:1032500088E291E011969C938E93E8E6F6E080E593
:1032600080831182EAE6F6E01582168211861386C3
:1032700002E010E020E030E00487158726873787DA
:1032800013A215A614A68AE391E093A782A717A616
:10329000E5E0F7E013821482158216821782B38765
:1032A000A2878FE6808381E791E092838183E9EFB3
:1032B000F6E013821482158216821782B387A287E2
:1032C00080E7808385E791E092838183ECEEF6E0EE
:1032D0001382128288E591E091838083118687E2D0
:1032E000848380E1828782E083871486E1EDF6E0C3
:1032F00013821282448355836683778386E491E048
:1033000091838083128E118E1486EFEBF6E011828A
:10331000108216861786108A118A4283538364832B
:10332000758316821782108611868BE792E1938748
:10333000828784E696E1958784871F910F9108958F
:10334000CF93DF93CDB7DEB7CF57D1090FB6F8943F
:10335000DEBF0FBECDBF789484B5826084BD84B5D6
:10336000816084BD85B5826085BD85B5816085BD80
:1033700080916E00816080936E0010928100809138
:1033800081008260809381008091810081608093C0
:103390008100809180008160809380008091B100E5
:1033A00084608093B1008091B00081608093B00010
:1033B00080917A00846080937A0080917A008260A4
:1033C00080937A0080917A00816080937A00809166
:1033D0007A00806880937A001092C1000E945103A5
:1033E000E091DB05F091DC0582E08083E091D70578
:1033F000F091D8051082E091D905F091DA058FECB3
:1034000080831092E305E091DF05F091E00586E00E
:103410008083E091DD05F091DE058081806180830D
:10342000E091DD05F091DE05808188608083E09188
:10343000DD05F091DE05808180688083E091DD0507
:10344000F091DE0580818F7D80831092C0061092FE
:10345000BF061092CD061092CE061092CF061092A3
:10346000D0060E9451031092F1068091F706823037
:1034700018F098E09093F1068093F40662E370E010
:1034800080E090E00E9458016091F8068CEE96E092
:103490000E94FC0568EE73E080E090E00E94580115
:1034A00060E38CEE96E00E946F110BE416E4C80115
:1034B0000197F1F760E38CEE96E00E946F11C8016E
:1034C0000197F1F760E38CEE96E00E946F1183E5BF
:1034D00092E00197F1F760E28CEE96E00E946F11A6
:1034E0006091F106606240E08CEE96E00E948811E7
:1034F00084E08093F20640E06CE08CEE96E00E945F
:1035000088110E94D01182E08093F30640E066E0CB
:103510008CEE96E00E94881140E062E08CEE96E02E
:103520000E9488118BE39FE10197F1F70E94D0116F
:1035300088E08093F80660E08CEE96E00E94FC053F
:103540000E94D01180E00E949F1168E771E08CEE2C
:1035500096E00E94DC1381E00E949F1162E871E016
:103560008CEE96E00E94DC1368EB7BE080E090E05C
:103570000E9458016BE871E085E097E00E946312B9
:103580006CE271E080E090E00E94580161E971E036
:1035900085E097E00E9463126CE271E080E090E0C9
:1035A0000E94580169E971E08BEC95E00E94C81314
:1035B0006EE671E08BEC95E00E94C81368EA71E05A
:1035C0008BEC95E00E94DC138AE00E94C800809199
:1035D0009906882321F084E996E00E94AB0D1092B1
:1035E0007506109273061092700610926F068AE0AC
:1035F00080936E060E948A018B0180916E060E9464
:10360000C80061E080916E060E94E700FFB6F89462
:1036100080912703811124C0E8E1F1E08491ECE27C
:10362000F1E09491E82FF0E0EE0FFF1FEC5FFE4F0A
:10363000A591B491EC91E92321F461E08AE00E9424
:10364000E7008AE00E94C8008CB580618CBD8CB513
:1036500080648CBD8DE00E94C8008BE00E94C80091
:10366000809127038F5F80932703FFBE82E58093BD
:1036700068061092690680916806909169060E941A
:103680004906EAE0FE2E8FEF0E942406FA94F1101C
:10369000FACF8AE696E00E944C0620E030E0A901CD
:1036A00060E08AE696E00E946206F82E8093740637
:1036B00031E08317D9F00E948A01601B710B613DD4
:1036C000774058F381E080936F068AE696E00E9487
:1036D000190666ED71E08BEC95E00E94DC136EED4F
:1036E00071E08BEC95E00E94C813FFCF2AEA31E02D
:1036F00040E050E068E08AE696E00E94620682FFC1
:103700002BC0F092750680917506C12CD12CE12C4E
:1037100060E4F62E823019F0C12CD12C760120E025
:1037200030E0A90167E38AE696E00E946206A701FD
:10373000960169E28AE696E00E946206782E8093FE
:1037400074068823D1F00E948A01601B710B613DD1
:10375000774028F388E0B7CF74E0F72E0E942B065D
:1037600080937406FA94F110F9CF8A3A11F082E04E
:10377000AACF82E080937506C6CF8091750682300D
:10378000D1F420E030E0A9016AE38AE696E00E94E5
:103790006206882311F086E096CF0E942B06807C7B
:1037A000803C19F483E0809375060E942B060E94EA
:1037B0002B060E942B068AE696E00E94190680E5F9
:1037C000809368061092690681E00E946808882349
:1037D00009F48CC084E996E00E941F0B882309F449
:1037E00078CF64EC71E08BEC95E00E94C8136E0119
:1037F000A3E7CA0ED11C8DE0E6EAF2E0D601019003
:103800000D928A95E1F75AE3852E51E0952E872D8A
:103810006AE00E943024805DF6018683905D978384
:103820001EAE1DAE9CAE8BAE21961FAE219719A287
:1038300018A29F8E8E8E1BA2312C212CCE01CB96EE
:103840005C0144E9E42E46E0F42E832D922DF6012E
:10385000E80FF91F20812F3209F40196D601A80F35
:10386000B91FFE01E85AFF4F30E020E08F014D9173
:103870004F3249F0442339F001962F5F3F4F419377
:103880002C303105A1F7200F311FF9011082F6010C
:10389000E80FF91F20812F3209F40196382E292EC6
:1038A0008C0D9D1DDC016C901C821B829A8289828A
:1038B0001E8221E0A801B701CE0101960E94831467
:1038C000882309F497C4CE0101960E94AB0D6110C4
:1038D00014C034E9E31636E0F30619F0C7010E947C
:1038E000AB0D7394B4E67B1292CFF3C080E00E94DC
:1038F0006808882309F4EDCE6DCFF501858181112B
:103900008FC421E0A801B701C5010E948314682E6D
:10391000F4E9EF16F6E0FF0609F476C4C7010E9449
:10392000AB0D611077C419A218A28AE391E09F8FB2
:103930008E8F1BA21C821B829A8389831E824E015A
:103940008EE1880E911CC4010E941F0BDE011196AE
:103950007D01140156016FE270E0C5010E949A27B3
:10396000009709F456C0F50120812F3271F4FFEF62
:10397000AF1ABF0A9E2D8F2D7101292E382E922D40
:10398000832D1701E92EF82EE6CF8A198D3008F025
:103990008CE0682E712CA301B501C8010E94A527F7
:1039A000F801E60DF71D1082C7010E94AB0DD7018B
:1039B00015968C918823F9F01EAE1DAE8AE391E036
:1039C0009CAF8BAF21961FAE21974C0C5D1CF20172
:1039D0008081811127C0BE01655C7F4FCE010196B9
:1039E0000E94640F4AEF51E0BE016F5F7F4FC80134
:1039F0000E942F1638C021E0A801B101C7010E9422
:103A000083148823C9F2A60CB71CC1010E94AB0D18
:103A1000B6CF25014C185D08B101CE01CB960E94AE
:103A2000640FD3CF19A218A28AE391E09F8F8E8FE3
:103A30001BA221968FAD2197811161C0D8011396E9
:103A40001C921E92129788EE93E0A0E0B0E0F8017D
:103A500084839583A683B78386E491E091838083F2
:103A6000128E118E1486D80112968D919C91139707
:103A70009093D4068093D30614968D919D910D90CA
:103A8000BC91A02D8093D5069093D606A093D7061F
:103A9000B093D806F80180859185A285B38580937F
:103AA000D9069093DA06A093DB06B093DC06D80122
:103AB0001C96EDEDF6E08D91819336E0EA3EF3073A
:103AC000D1F7D80159968D919C919093EB068093F4
:103AD000EA06E091EA06F091EB06309719F085814D
:103AE00081112AC066ED71E08BEC95E00E94DC1339
:103AF0006CEF71E08BEC95E00E94C813FFCF27E1DB
:103B0000A201BE01655C7F4FC4010E94831488231B
:103B100009F494CFCE01CB960E94AB0D49A95AA9C6
:103B20006BA97CA9C4010E94730BB401CE0101965C
:103B30000E94640FA20158CF60E172E08BEC95E027
:103B40000E94DC13B6018BEC95E00E94C8130E9422
:103B500051038091320390913303009711F00E943A
:103B6000FD2686E090E00E9461268C0188E6F8013F
:103B7000808383EB96E092838183138280E290E0DE
:103B80009583848310933303009332030E9451037F
:103B900081E0D80113968C93C8010E9479048111A9
:103BA0000CC06DE172E081ED96E00E94C8136DE1FA
:103BB00072E08BEC95E00E94C81368E272E081ED40
:103BC00096E00E94C8136EE572E08BEC95E00E94CF
:103BD000C81360ED77E080E090E00E94580197E024
:103BE000892E912C20E0222E20E0322E4424439472
:103BF000512C1BA21AA219A21E8EEBEDF0E081E05F
:103C00008C3051F09491823009F49F5F21E0280FAD
:103C10003196992309F4C8C08F8FB1E0B8A3809181
:103C2000BF069091C006009709F4C0C0019709F43F
:103C3000EFC060ED77E080E090E00E9458010E94C4
:103C4000D01180E00E949F1163E972E08CEE96E053
:103C50000E94DC1360914803709149038CEE96E05A
:103C60000E94DC1369E972E08CEE96E00E94DC139E
:103C700081E00E949F116CE972E08CEE96E00E9458
:103C8000DC1364E373E08CEE96E00E94DC1369E9D8
:103C900072E08CEE96E00E94DC130E948A016B01B8
:103CA0007C012AE0BC01A60181ED96E00E9487120A
:103CB0006FE671E081ED96E00E94DC132AE0B70127
:103CC000A6018BEC95E00E9487126FE671E08BEC09
:103CD00095E00E94DC131982C0903203D090330328
:103CE000F60184819581892B09F4CBC08181928171
:103CF0002081F1E0F093A7052093C9051092A80553
:103D00001092CA05DC01ED91FC910280F381E02D57
:103D100041E050E0BE016F5F7F4F0995019709F0C8
:103D2000B0C080E00E9489038111ABC0F12CE12C6E
:103D3000F6018481958184010E191F09801791076E
:103D400008F48C0141E0C401801B910BE816F906D0
:103D500008F440E0602FD6018C910E949E041092DE
:103D60005A05809359058017110609F08AC0AA24C4
:103D7000A394B12CAC0EBD1EAE0CBF1C3501C50109
:103D8000861997098017910708F074C0F6018181A0
:103D90009281DC01ED91FC910284F385E02D09957F
:103DA000F50181935F01EBCF822F2ACF0E948A0118
:103DB0000091CD061091CE062091CF063091D0060D
:103DC000601771078207930708F433CFE091C906A3
:103DD000F091CA0609950E948A010091C1061091CE
:103DE000C2062091C3063091C406DC01CB01800FCE
:103DF000911FA21FB31F8093CD069093CE06A09370
:103E0000CF06B093D0065092C0064092BF0611CFA5
:103E10000E948A010091CD061091CE062091CF0616
:103E20003091D006601771078207930708F401CF1D
:103E3000E091CB06F091CC0609950E948A01009191
:103E4000C5061091C6062091C7063091C806DC0150
:103E5000CB01800F911FA21FB31F8093CD069093BB
:103E6000CE06A093CF06B093D0061092C006109253
:103E7000BF06DFCEE00EF11EF7E0EF16F10408F406
:103E800057CF69816F777A81EB81FD818E819F8128
:103E9000492F50E024E0559547952A95E1F7242FC6
:103EA000220F220F421B440F490F4E8F282F30E064
:103EB00044E0359527954A95E1F7922F990F990F90
:103EC000291B220F280F2F8F8F2F90E054E09595FC
:103ED00087955A95E1F7982F990F990F891B880FAD
:103EE0008F0F88A34E2F50E0F4E055954795FA9533
:103EF000E1F7842F880F880F481B440F4E0F49A30A
:103F0000272F30E0A4E035952795AA95E1F7822F79
:103F1000880F880F281B220F270F2AA3862F90E0D7
:103F2000B4E095958795BA95E1F7982F990F990F79
:103F3000891B880F860F8BA3CE014E960E94A30289
:103F4000AB01BC012AE081ED96E00E9487126FE68A
:103F500071E081ED96E00E94DC134E8D50E04053FD
:103F6000584F70E060E02AE081ED96E00E948712F1
:103F70006AEF71E081ED96E00E94DC136F8D81EDB8
:103F800096E00E94D3126AEF71E081ED96E00E9404
:103F9000DC1368A181ED96E00E94D31264EA72E01E
:103FA00081ED96E00E94DC1369A181ED96E00E940C
:103FB000D31261EA72E081ED96E00E94DC136AA1FF
:103FC00081ED96E00E94D31261EA72E081ED96E005
:103FD0000E94DC136BA181ED96E00E94D312CE010A
:103FE0004E960E94A302AB01BC012AE08BEC95E047
:103FF0000E9487126FE671E08BEC95E00E94DC1363
:104000004E8D50E04053584F70E060E02AE08BEC5A
:1040100095E00E9487126AEF71E08BEC95E00E94B8
:10402000DC136F8D8BEC95E00E94D3126AEF71E088
:104030008BEC95E00E94DC1368A18BEC95E00E946C
:10404000D31264EA72E08BEC95E00E94DC1369A164
:104050008BEC95E00E94D31261EA72E08BEC95E064
:104060000E94DC136AA18BEC95E00E94D31261EAF6
:1040700072E08BEC95E00E94DC136BA18BEC95E079
:104080000E94D3126FE671E081ED96E00E94DC138E
:10409000609130037091310381ED96E00E94DC1352
:1040A00063EA72E08BEC95E00E94DC1360913003D0
:1040B000709131038BEC95E00E94DC136FE671E0A8
:1040C00081ED96E00E94DC136091480370914903F2
:1040D00081ED96E00E94DC136FE671E08BEC95E0D9
:1040E0000E94DC1360914803709149038BEC95E0CA
:1040F0000E94DC136FE671E081ED96E00E94DC1314
:1041000064E373E081ED96E00E94DC136FE671E0FA
:104110008BEC95E00E94DC1364E373E08BEC95E09C
:104120000E94DC136FE671E081ED96E00E94DC13E3
:1041300040912C0350912D0360912E0370912F0319
:1041400022E081ED96E00E94DA126FE671E08BECDE
:1041500095E00E94DC1340912C0350912D03609157
:104160002E0370912F0322E08BEC95E00E94DA126F
:104170006FE671E081ED96E00E94DC134091280328
:104180005091290360912A0370912B0322E081ED65
:1041900096E00E94DA126FE671E08BEC95E00E94E7
:1041A000DC13409128035091290360912A037091F8
:1041B0002B0322E08BEC95E00E94DA126CE671E0B2
:1041C00081ED96E00E9454126CE671E08BEC95E074
:1041D0000E94541281ED96E00E94B50F2114310423
:1041E00009F407CD0E940002882309F402CD0E9441
:1041F0000000FFCC34E9E31636E0F30609F493CB74
:10420000C7010E94AB0D8FCB882309F48CCBDE0154
:104210005E967D019E2D8F2D7501A92EB82E15CB92
:1042200084E9E81686E0F80609F47DCBE9CF662735
:1042300077270C94472141E157E00E9420210895FF
:10424000FA01A191B081009719F41097E1F0CD0126
:10425000DC01CD010D90002011F4C00113C0FB0161
:104260002191222319F02015D9F7F3CFFB012191D9
:10427000201519F41E92119606C02223C1F70D9045
:104280000020A1F7D001FA01A193B0830895B0E016
:10429000A0E0EDE4F1E20C94F0235C017B016115F8
:1042A000710519F0DB018D939C9385010F5F1F4F02
:1042B000F501D0818D2F90E00E9497226C01892B0F
:1042C000B9F5DD32B9F50F5F1F4FD5011196DC91BD
:1042D000C1E05801F1E0AF1AB10843E050E068E9ED
:1042E00070E0C5010E94A022892B69F5680182E077
:1042F000C80ED11C45E050E063E970E0C6010E94A1
:10430000A022892B21F4680197E0C90ED11CE11489
:10431000F10419F0D701CD92DC9260E070E080E802
:104320009FEFC111FFC060E070E080E89FE7FAC036
:104330005801BBCFDB3229F485010E5F1F4FF50119
:10434000D181C0E0C6CF43E050E060E970E0C50134
:104350000E94A022892BE9F0F80110E000E020E0A3
:1043600030E0A9015F01B0ED8B2E8D0E89E088153C
:10437000C8F19C2E689491F88C2F8870C2FF16C0EB
:10438000811102C00F5F1F4F3196D501DC91C92DFD
:10439000E9CFE114F10429F00E5F1F4FF7011183FB
:1043A000008360E070E080EC9FE7BCC0882311F0E0
:1043B00001501109A5E0B0E00E94DF239B01AC0190
:1043C000220F331F441F551F280D311D411D511D44
:1043D000283999E93907490799E15907A8F2C660D0
:1043E0009C2ED2CFAEEF8A1206C0C3FD3CC09C2EDD
:1043F000689493F8C9CFDF7DD534A9F580818D32DB
:1044000039F4C061DF011296818162E070E006C07C
:10441000DF018B32C1F3119661E070E080535D01E2
:10442000A61AB70A8A30F8F4E0E8CE16ECE0DE0609
:104430005CF4B601660F771F660F771FC60ED71E96
:10444000CC0CDD1CC80ED11C5D01FFEFAF1ABF0AFA
:104450008C9180538A30A8F1C4FF03C0D194C194D9
:10446000D1080C0D1D1DC1FF09C0E114F10431F08C
:1044700081E0A81AB108D701AD92BC92CA01B90176
:104480000E94BD22C370C33009F490584B015C01F7
:1044900020E030E0A9010E94B822882309F440C03E
:1044A000C7ECD0E017FF05C0119501951109CFEABF
:1044B000D0E06E01B8E1CB1AD10880E2E82EF12CF1
:1044C0000FC0D501B1CFFE01259135914591549191
:1044D0000E191F09C501B4010E941E234B015C0186
:1044E000D501C4010E151F0574F72497F594E794C0
:1044F000CC16DD06A9F78A2F880F8B2F881F8F3FD8
:1045000049F020E030E0A901C501B4010E94B822C1
:10451000811106C082E290E0909314078093130704
:10452000C501B401CDB7DEB7ECE00C940C249111B9
:104530000C948B23803219F089508550C8F7089568
:10454000FB01DC014150504088F08D9181341CF01A
:104550008B350CF4805E659161341CF06B350CF486
:10456000605E861B611171F3990B0895881BFCCF67
:104570000E94FA2208F481E00895E89409C097FBAC
:104580003EF490958095709561957F4F8F4F9F4F2A
:104590009923A9F0F92F96E9BB279395F69587956E
:1045A00077956795B795F111F8CFFAF4BB0F11F431
:1045B00060FF1BC06F5F7F4F8F4F9F4F16C08823D8
:1045C00011F096E911C0772321F09EE8872F762F0E
:1045D00005C0662371F096E8862F70E060E02AF04F
:1045E0009A95660F771F881FDAF7880F969587953B
:1045F00097F90895990F0008550FAA0BE0E8FEEF10
:1046000016161706E807F907C0F012161306E40796
:10461000F50798F0621B730B840B950B39F40A268F
:1046200061F0232B242B252B21F408950A2609F46D
:10463000A140A6958FEF811D811D08950E94312311
:104640000C94A5230E94972338F00E949E2320F00B
:10465000952311F00C948E230C94942311240C9424
:10466000D9230E94B62370F3959FC1F3950F50E0B4
:10467000551F629FF001729FBB27F00DB11D639F14
:10468000AA27F00DB11DAA1F649F6627B00DA11DBA
:10469000661F829F2227B00DA11D621F739FB00D60
:1046A000A11D621F839FA00D611D221F749F3327D0
:1046B000A00D611D231F849F600D211D822F762F69
:1046C0006A2F11249F5750409AF0F1F088234AF046
:1046D000EE0FFF1FBB1F661F771F881F91505040B2
:1046E000A9F79E3F510580F00C948E230C94D9239A
:1046F0005F3FE4F3983ED4F3869577956795B79539
:10470000F795E7959F5FC1F7FE2B880F911D969552
:10471000879597F9089599278827089597F99F67AE
:1047200080E870E060E008959FEF80EC0895002439
:104730000A941616170618060906089500240A9406
:1047400012161306140605060895092E0394000C8C
:1047500011F4882352F0BB0F40F4BF2B11F460FF1B
:1047600004C06F5F7F4F8F4F9F4F089557FD905844
:10477000440F551F59F05F3F71F04795880F97FB25
:10478000991F61F09F3F79F08795089512161306DF
:104790001406551FF2CF4695F1DF08C0161617060E
:1047A0001806991FF1CF8695710561050894089543
:1047B000E894BB2766277727CB0197F908950E94D5
:1047C0002124A59F900DB49F900DA49F800D911D55
:1047D000112408952F923F924F925F926F927F9291
:1047E0008F929F92AF92BF92CF92DF92EF92FF9201
:1047F0000F931F93CF93DF93CDB7DEB7CA1BDB0BAD
:104800000FB6F894DEBF0FBECDBF09942A88398851
:1048100048885F846E847D848C849B84AA84B98458
:10482000C884DF80EE80FD800C811B81AA81B98164
:10483000CE0FD11D0FB6F894DEBF0FBECDBFED0178
:104840000895A29FB001B39FC001A39F700D811D69
:104850001124911DB29F700D811D1124911D089589
:10486000991B79E004C0991F961708F0961B881FC2
:104870007A95C9F780950895A1E21A2EAA1BBB1B51
:10488000FD010DC0AA1FBB1FEE1FFF1FA217B3071C
:10489000E407F50720F0A21BB30BE40BF50B661F32
:1048A000771F881F991F1A9469F7609570958095F6
:1048B00090959B01AC01BD01CF010895EE0FFF1F44
:1048C0000590F491E02D09945058BB27AA270E9427
:1048D0007C240C94A5230E94972338F00E949E23E9
:1048E00020F039F49F3F19F426F40C9494230EF42D
:1048F000E095E7FB0C948E23E92F0E94B62358F332
:10490000BA17620773078407950720F079F4A6F5B4
:104910000C94D8230EF4E0950B2EBA2FA02D0B018A
:10492000B90190010C01CA01A0011124FF27591BF4
:1049300099F0593F50F4503E68F11A16F040A22FFA
:10494000232F342F4427585FF3CF4695379527956B
:10495000A795F0405395C9F77EF41F16BA0B620B6A
:10496000730B840BBAF09150A1F0FF0FBB1F661FB1
:10497000771F881FC2F70EC0BA0F621F731F841FF4
:1049800048F4879577956795B795F7959E3F08F01A
:10499000B0CF9395880F08F09927EE0F97958795DC
:1049A00008950E94E5240C94A5230E949E2358F0AC
:1049B0000E94972340F029F45F3F29F00C948E2346
:1049C00051110C94D9230C9494230E94B62368F3BC
:1049D0009923B1F3552391F3951B550BBB27AA27B8
:1049E00062177307840738F09F5F5F4F220F331FF2
:1049F000441FAA1FA9F335D00E2E3AF0E0E832D0BA
:104A000091505040E695001CCAF72BD0FE2F29D0BC
:104A1000660F771F881FBB1F261737074807AB078E
:104A2000B0E809F0BB0B802DBF01FF2793585F4F03
:104A30003AF09E3F510578F00C948E230C94D923C4
:104A40005F3FE4F3983ED4F3869577956795B795E5
:104A5000F7959F5FC9F7880F911D9695879597F9F0
:104A60000895E1E0660F771F881FBB1F6217730769
:104A70008407BA0720F0621B730B840BBA0BEE1F7E
:104A800088F7E095089529F416F00C948E230C9481
:104A9000D8230C9494230E94BE23A8F39638A0F741
:104AA00007F80F92E8942BE33AEA48EB5FE70E949D
:104AB00034230F920F920F924DB75EB70F920E9460
:104AC0001A26E8E6F0E00E94AC254F915F91EF9145
:104AD000FF91E595EE1FFF1F49F0FE57E068442760
:104AE000EE0F441FFA95E1F74195550B0E94E4251E
:104AF0000F9007FE0C94D82508950E94BE2388F0DD
:104B00009F5798F0B92F9927B751B0F0E1F0660F91
:104B1000771F881F991F1AF0BA95C9F714C0B130D2
:104B200091F00E94D823B1E008950C94D823672F08
:104B3000782F8827B85F39F0B93FCCF38695779501
:104B40006795B395D9F73EF49095809570956195EA
:104B50007F4F8F4F9F4F0895DF93CF931F930F93F6
:104B6000FF92EF92DF927B018C01689406C0DA2EEF
:104B7000EF010E943123FE01E894A5912591359122
:104B800045915591A6F3EF010E947C24FE01970107
:104B9000A801DA9469F7DF90EF90FF900F911F91D1
:104BA000CF91DF9108950E94FA2208F48FEF0895C3
:104BB0009B01AC0160E070E080E89FE30C94D1249D
:104BC0000C948E230C9453260E94BE23D8F3992371
:104BD000C9F3940F511DA3F39150504094F059F034
:104BE000882332F0660F771F881F91505040C1F71D
:104BF0009E3F51052CF7880F911D9695879597F943
:104C000008955F3FACF0983E9CF0BB278695779562
:104C10006795B79508F4B1609395C1F7BB0F58F746
:104C200011F460FFE8CF6F5F7F4F8F4F9F4FE3CF4F
:104C30000C94D923FA01DC01AA0FBB1F9B01AC0124
:104C4000BF5728F4222733274427507820C0B75174
:104C500090F4AB2F0024469537952795011CA3951A
:104C6000D2F3002071F0220F331F441FB395DAF303
:104C70000ED00C94642461307105A0E88A07B9460F
:104C800030F49B01AC01662777278827907830960F
:104C900021F0208331834283538308950E94FA22B6
:104CA000880B990B08959F3F31F0915020F4879520
:104CB00077956795B795880F911D9695879597F984
:104CC00008950F931F93CF93DF938230910510F4D3
:104CD00082E090E0E0911707F091180730E020E0C3
:104CE000B0E0A0E0309799F42115310509F44AC0ED
:104CF000281B390B24303105D8F58A819B81611539
:104D0000710589F1FB0193838283FE0111C040810B
:104D100051810281138148175907E0F0481759075C
:104D200099F4109761F012960C93129713961C93B6
:104D30003296CF01DF91CF911F910F91089500938B
:104D4000170710931807F4CF2115310551F04217BA
:104D5000530738F0A901DB019A01BD01DF01F80119
:104D6000C1CFEF01F9CF9093180780931707CDCFEC
:104D7000FE01E20FF31F8193919322503109398391
:104D80002883D7CF2091150730911607232B41F4A4
:104D900020910601309107013093160720931507E3
:104DA00020910401309105012115310541F42DB701
:104DB0003EB74091080150910901241B350BE09149
:104DC0001507F0911607E217F307A0F42E1B3F0B0F
:104DD0002817390778F0AC014E5F5F4F241735076D
:104DE00048F04E0F5F1F50931607409315078193AD
:104DF00091939FCFF0E0E0E09CCFCF93DF930097BB
:104E0000E9F0FC01329713821282A0911707B0914A
:104E10001807ED0130E020E01097A1F420813181E6
:104E2000820F931F20911507309116072817390715
:104E300009F061C0F0931607E0931507DF91CF9159
:104E40000895EA01CE17DF07E8F54A815B819E01EC
:104E500041155105B1F7E901FB83EA834991599165
:104E6000C40FD51FEC17FD0761F480819181029674
:104E7000840F951FE90199838883828193819B83A5
:104E80008A83F0E0E0E012968D919C911397009751
:104E9000B9F52D913C911197CD010296820F931F88
:104EA00020911507309116072817390739F63097E2
:104EB00051F51092180710921707B0931607A09398
:104EC0001507BCCFD383C28340815181840F951FC6
:104ED000C817D90761F44E5F5F4F88819981480FE9
:104EE000591F518340838A819B819383828321153B
:104EF000310509F0B0CFF0931807E09317079ECF64
:104F0000FD01DC01C0CF13821282D7CFFB01DC018F
:104F100004C08D910190801921F441505040C8F790
:104F2000881B990B0895DC0101C06D9341505040DE
:104F3000E0F70895FC018191861721F08823D9F7C5
:104F4000992708953197CF010895FB01DC01415065
:104F5000504048F001900D920020C9F701C01D9209
:0C4F600041505040E0F70895F894FFCF56
:104F6C00FFFFFFFF00001907800000004000140045
:104F7C0054000000000036029601C3018302F401C4
:104F8C00D201E60100000000CD05A0051006760553
:104F9C0099058605770500000000530F96014D0D0D
:104FAC00B40F000000000B10EE0FDE0FB50FBE0F9C
:104FBC0041114B1100000000E21196011006B40FD4
:104FCC006E616E00696E66006F7666000D0A002CCD
:104FDC000048554D006F32004D616E646172696A14
:104FEC006E004D6F6E69746F6F72006F2C742C3184
:104FFC00006F2C6465772C31005345545550204379
:10500C004F4D504C45544500496E697469616C694B
:10501C007A696E672053442063617264206E6F77E7
:10502C002E2E2E006361726420696E697469616C46
:10503C00697A65642E006572726F723A2000436162
:10504C007264206661696C65642C206F72206E6FCF
:10505C00742070726573656E74002F00636F756CCD
:10506C00646E74206372656174652066696C65009A
:10507C004C6F6767696E6720746F3A200052544317
:10508C00206661696C6564006D696C6C69732C7366
:10509C0074616D702C6461746574696D652C7465D4
:1050AC006D702C2048554D2C204F322C20683230FE
:1050BC002870706D292C6F322870706D29006D6905
:1050CC006C6C69732C7374616D702C646174657491
:1050DC00696D652C74656D702C48554D2C204F32C4
:1050EC002C2068756D2870706D292C6F32287070AB
:1050FC006D290048554D3A20002025004F323A20AA
:10510C00003A002C20004C4F4747455230302E437C
:04511C0053560000E6
:00000001FF
