:100000000C949C000C94C4000C94C4000C94C40088
:100010000C94C4000C94C4000C94C4000C94C40050
:100020000C94C4000C94C4000C94C4000C94C40040
:100030000C94C4000C94C4000C94C4000C94C40030
:100040000C9436180C94C4000C94A6180C948018C8
:100050000C94C4000C94C4000C94C4000C94C40010
:100060000C94D8180C94C40007634236B79BD8A7E9
:100070001A39685618AEBAAB558C1D3CB7CC5763CD
:10008000BD6DEDFD753EF6177231BF000000803F7B
:100090004E414E494E495459494E46CDCCCC3D0A6D
:1000A000D7233C17B7D13877CC2B329595E6241F50
:1000B000B14F0A000020410000C84200401C462009
:1000C000BCBE4CCA1B0E5AAEC59D747C3C3E5E2B1A
:1000D0003D3F2F5B5D3B2C2A225C001F1C1F1E1F17
:1000E0001E1F1F1E1F1E000000080002010000034B
:1000F00004070000000000000000000000002500D0
:1001000028002B0000000000240027002A0004041F
:1001100004040404040402020202020203030303AF
:10012000030301020408102040800102040810208B
:10013000010204081020041A11241FBECFEFD8E0DA
:10014000DEBFCDBF27E0ACECB2E001C01D92A13311
:10015000B207E1F712E0A0E0B1E0ECE3F5E502C0A0
:1001600005900D92AC3CB107D9F710E0CCE9D0E096
:1001700004C02197FE010E94A524CB39D107C9F7FD
:100180000E94B61A0C949C2A0C94000008950895BD
:1001900090E0FC01EE5DFE4F2491825F9E4FFC01DA
:1001A0008491882399F090E0880F991FFC01EC5FFF
:1001B000FE4FA591B491FC01E650FF4F85919491BB
:1001C0008FB7F894EC91E22BEC938FBF089590E0F9
:1001D000FC01EA51FF4F2491FC01EE5DFE4F34918A
:1001E000FC01E25FFE4FE491EE23C9F0222339F0D7
:1001F000233001F1A8F4213019F1223029F1F0E087
:10020000EE0FFF1FE650FF4FA591B4918FB7F89402
:10021000EC91611126C030953E233C938FBF089529
:100220002730A9F02830C9F0243049F780918000A8
:100230008F7D03C0809180008F7780938000DFCF17
:1002400084B58F7784BDDBCF84B58F7DFBCF809164
:10025000B0008F778093B000D2CF8091B0008F7DB7
:10026000F9CF3E2BDACF3FB7F89480916503909198
:100270006603A0916703B091680326B5A89B05C0EB
:100280002F3F19F00196A11DB11D3FBFBA2FA92F15
:10029000982F8827BC01CD01620F711D811D911D12
:1002A00042E0660F771F881F991F4A95D1F708957E
:1002B0008F929F92AF92BF92CF92DF92EF92FF9276
:1002C0004B015C010E9433016B017C010E943301F0
:1002D0006C197D098E099F09683E7340810591055F
:1002E000A8F321E0821A9108A108B10888EEC80E8F
:1002F00083E0D81EE11CF11C81149104A104B10417
:1003000029F7FF90EF90DF90CF90BF90AF909F9034
:100310008F9008952FB7F8946091610370916203F4
:1003200080916303909164032FBF0895AF92BF92B1
:10033000CF92DF92EF92FF920F931F93CF93DF93B1
:100340006C017B018B01040F151FEB015E01AE18E0
:10035000BF08C017D10759F06991D601ED91FC9102
:100360000190F081E02DC6010995892B79F7C5012F
:10037000DF91CF911F910F91FF90EF90DF90CF9081
:10038000BF90AF900895FC01538D448D252F30E030
:10039000842F90E0821B930B541710F0CF96089592
:1003A00001970895FC01918D828D981761F0A28DBF
:1003B000AE0FBF2FB11D5D968C91928D9F5F9F7385
:1003C000928F90E008958FEF9FEF0895FC01918D3B
:1003D000828D981731F0828DE80FF11D858D90E0A8
:1003E00008958FEF9FEF0895FC01918D228D892F45
:1003F00090E0805C9F4F821B91098F73992708952D
:1004000083EE95E00E94F40121E0892B09F420E0BD
:10041000822F089580E090E0892B29F00E9400024D
:1004200081110C9400000895FC01A48DA80FB92F30
:10043000B11DA35ABF4F2C91848D90E001968F730C
:100440009927848FA689B7892C93A089B1898C912B
:10045000837080648C93938D848D981306C002887A
:10046000F389E02D80818F7D80830895EF92FF9244
:100470000F931F93CF93DF93EC0181E0888F9B8DC7
:100480008C8D98131AC0E889F989808185FF15C081
:100490009FB7F894EE89FF896083E889F9898081A4
:1004A0008370806480839FBF81E090E0DF91CF9173
:1004B0001F910F91FF90EF900895F62E0B8D10E095
:1004C0000F5F1F4F0F731127E02E8C8D8E110CC004
:1004D0000FB607FCFACFE889F989808185FFF5CF4F
:1004E000CE010E941402F1CFEB8DEC0FFD2FF11D18
:1004F000E35AFF4FF0829FB7F8940B8FEA89FB898C
:1005000080818062CFCFCF93DF93EC01888D8823E9
:10051000B9F0AA89BB89E889F9898C9185FD03C066
:10052000808186FD0DC00FB607FCF7CF8C9185FF4B
:10053000F2CF808185FFEDCFCE010E941402E9CF7A
:10054000DF91CF910895EF92FF920F931F93CF9376
:10055000DF93EC0169813881432F50E02A81822F9B
:1005600090E0EBEDF0E021E0261730F47491870F76
:10057000911D2F5F3196F8CF633018F0337009F476
:1005800001966DE671E0469F9001479F300D569FA2
:10059000300D1124215031094D5F5F4F569547951D
:1005A00056954795240F351F280F391FA8E1B0E055
:1005B0000E9474242B817B018C01E20EF11C011D31
:1005C000111DA8019701ACE3B0E00E9432242C81F8
:1005D0007B018C01E20EF11C011D111DA801970188
:1005E0000E943224AB01BC019D81892F90E0B0E0D4
:1005F000A0E080589C4BA249B74C8A019B01080F90
:10060000191F2A1F3B1FC901B801DF91CF911F910C
:100610000F91FF90EF90089520911C03260F332730
:10062000331F21323105ECF42091B905FC0190E033
:1006300080E0243069F082E00895A0911C032191AC
:10064000AC0144505D4FA40FB52FB11D2C93019602
:10065000861798F380911C03680F60931C0380E059
:10066000089581E008951092B90581E08093B8055E
:100670001092930561E082E10E94E70061E083E16E
:100680000E94E700E9EBF0E080818E7F808380812B
:100690008D7F808388E48093B80085E48093BC00DC
:1006A000089510927205109271051092C005109273
:1006B000E2050E94330386EC90E0909370058093EE
:1006C0006F0587EC90E090936E0580936D0508951B
:1006D000CF93DF9391E09093FB028823B9F0C09110
:1006E000B800D091BA008091BC008A7B8093BC0096
:1006F00060E082E10E94E70060E083E10E94E700A1
:100700000E943303D093BA00C093B800DF91CF9119
:1007100008958F929F92AF92BF92CF92DF92EF9205
:10072000FF920F931F93CF93DF93D091E205D132C5
:1007300008F0D7C0182FC091E1050E9433016B016A
:100740007C018091B90581116BC082E08093B9056D
:100750001093B8058FEF8093B7051092B605D0932C
:10076000B505A1ECB5E0E5E9F5E080E0D81391C06E
:100770001092940580919405CC0FC82BC0939405DA
:1007800080919305813009F088C0109293050E94F2
:1007900033016B017C01809194058093BB008091B3
:1007A000BB059091BC05A091BD05B091BE05892BFC
:1007B0008A2B8B2BA1F00E9433010091BB05109175
:1007C000BC052091BD053091BE056C197D098E09CF
:1007D0009F09061717072807390708F442C08091B8
:1007E000BC0083FDD8CF85EC8093BC000E94330110
:1007F0006B017C018091B905823009F450C0809171
:10080000B7058F3F09F46FC08091B705803209F4B6
:100810006CC08091B705803309F469C084E026C0BC
:100820008091BB059091BC05A091BD05B091BE051E
:10083000892B8A2B8B2B09F484CF0E943301809063
:10084000BB059090BC05A090BD05B090BE056C198D
:100850007D098E099F0986169706A806B90608F035
:1008600070CF8091BA050E94680385E01092C005A0
:100870001092E2051092BF05DF91CF911F910F9169
:10088000FF90EF90DF90CF90BF90AF909F908F90B0
:1008900008959D9191938F5F69CF85EEA5CF80914B
:1008A000BB059091BC05A091BD05B091BE05892BFB
:1008B0008A2B8B2B09F49ECF0E9433010091BB053C
:1008C0001091BC052091BD053091BE056C197D09C4
:1008D0008E099F09061717072807390708F08ACFDE
:1008E000C0CF81E0C3CF80E0C1CF82E0BFCF83E043
:1008F000BDCFCF93DF93EC018B818823A1F088815A
:1009000091E09093BF058093E1051092C00510928D
:10091000E20581E00E94890391E0811190E0892F36
:10092000DF91CF9108950E94510381E08B83CE0126
:100930000E947904982F8111E2CFF1CF8F929F927C
:10094000AF92BF92CF92DF92EF92FF920F931F93DD
:10095000CF93DF93D82FC62F142F613208F09CC09D
:100960000E9433016B017C018091B90581116FC038
:1009700081E08093B9051093B8059FEF9093B70578
:100980001092B6059C0F9093B505809394058091C5
:100990009405DD0FD82BD093940580919305813079
:1009A00009F07CC0109293050E9433016B017C0119
:1009B000809194058093BB008091BB059091BC050C
:1009C000A091BD05B091BE05892B8A2B8B2BA1F080
:1009D0000E9433010091BB051091BC052091BD051B
:1009E0003091BE056C197D098E099F0906171707FE
:1009F0002807390708F44CC08091BC0083FDD8CF8C
:100A000085EC8093BC000E9433016B017C018091D6
:100A1000B905813009F444C08091B6058C1710F4F3
:100A2000C091B605E5E9F5E0A3E7B5E080E08C13F9
:100A300059C08C2FDF91CF911F910F91FF90EF90B4
:100A4000DF90CF90BF90AF909F908F90089580914E
:100A5000BB059091BC05A091BD05B091BE05892B49
:100A60008A2B8B2B09F480CF0E9433018090BB0529
:100A70009090BC05A090BD05B090BE056C197D0995
:100A80008E099F0986169706A806B90608F06CCF4E
:100A90008091BA050E946803C0E0CBCF85EEB1CF4C
:100AA0008091BB059091BC05A091BD05B091BE059C
:100AB000892B8A2B8B2B09F4AACF0E94330100913A
:100AC000BB051091BC052091BD053091BE056C1988
:100AD0007D098E099F09061717072807390708F0AF
:100AE00096CFD6CF91919D938F5FA1CF0895E0913E
:100AF000720580917105E81730F4F0E0ED58FA4F77
:100B0000808190E008958FEF9FEF08959091720596
:100B1000809171052FEF3FEF981748F4E92FF0E02F
:100B2000ED58FA4F208130E09F5F90937205C90124
:100B300008958091710590917205891B990B089514
:100B4000CF92DF92EF92FF920F931F93CF93DF9399
:100B50007C01CB018A012091BF05222389F0EB01A2
:100B60006B01C40ED51ECC15DD0569F06991D70166
:100B7000ED91FC910190F081E02DC7010995F3CF33
:100B8000642F0E940C03C801DF91CF911F910F9138
:100B9000FF90EF90DF90CF900895CF93DF931F9257
:100BA000CDB7DEB769832091BF052223F9F02091EC
:100BB000E205203258F021E030E0FC01338322834B
:100BC00090E080E00F90DF91CF9108958091C00573
:100BD000E82FF0E0EF53FA4F998190838F5F809375
:100BE000C0058093E20581E090E0ECCF61E0CE01AA
:100BF00001960E940C03F7CFFC01248131E0309371
:100C0000BF052093E1051092C0051092E20584858E
:100C1000682B8BEC96E00E94CD0581E00C94890353
:100C200090E080E008958FB7F8948091F5028FBF2F
:100C3000089561E0FC0184810E94E7008091F40244
:100C400081111092F40208958EBD00000DB407FECC
:100C5000FDCF8EB508958FEF0C9424060F931F934C
:100C6000CF93DF93EC010E948A018B010E942B0637
:100C70008F3F69F00E948A01601B710B6C177D0722
:100C8000A8F380E0DF91CF911F910F91089581E04B
:100C9000F9CF8CBD9DBD0895CF93DF93EC0180917A
:100CA000F402811109C081E08093F40280918006F2
:100CB000909181060E94490660E08C81DF91CF917E
:100CC0000C94E7008F929F92AF92BF92FF920F9386
:100CD0001F93CF93DF93EC01F62E49015A018E81C9
:100CE000882389F08F8198859C012F5F3F4F38873B
:100CF0002F838230924018F40E942B06F3CFCE014E
:100D00000E9419061E82CE010E944C068CE291E0E0
:100D10000E942E068F2D80640E94240608E110E0B8
:100D2000D501C401002E04C0B695A7959795879567
:100D30000A94D2F70E94240608501109083F8FEF49
:100D4000180771F785E9FF2021F028E087E8F21203
:100D50008FEF0E94240610E00E942B068A8787FFEF
:100D600004C01F3F11F01F5FF7CFDF91CF911F919C
:100D70000F91FF90BF90AF909F908F900895AF928A
:100D8000BF92CF92DF92EF92FF920F931F93CF9378
:100D9000DF93EC016901C801820F931F81309240FB
:100DA00050F58E81882379F088819981AA81BB8151
:100DB00084179507A607B70731F48F819885C81661
:100DC000D90608F042C0488359836A837B838B85A8
:100DD000833039F089E0440F551F661F771F8A95CD
:100DE000D1F79A01AB0161E1CE010E94620688232E
:100DF00089F083E08D83CE010E94190680E0DF91A7
:100E0000CF911F910F91FF90EF90DF90CF90BF9007
:100E1000AF9008950E948A015B010E942B068A8789
:100E20008F3F69F40E948A016A197B096D32714013
:100E3000A0F38FE08D83CE010E941906DCCF8E3F98
:100E400089F418861F8281E08E838F8198858C15A6
:100E50009D0550F40E942B068F81988501969887F6
:100E60008F83F3CF8DE0E6CF6701E00EF11E0E9485
:100E70002B06F60181936F01EE15FF05C1F78F81F7
:100E80009885080F191F18870F838985882319F003
:100E900001151240A0F08E81882389F08F819885FA
:100EA0009C012F5F3F4F38872F838230924018F488
:100EB0000E942B06F3CFCE010E9419061E8281E00C
:100EC0009ECFCF92DF92EF92FF920F93CF93DF935B
:100ED000EC01690182E1411551056105710599F047
:100EE0008B85833039F089E0440F551F661F771FCB
:100EF0008A95D1F79A01AB0168E1CE010E946206A2
:100F0000882319F084E08D832DC08EEF0E94240683
:100F100076018EEFD81AF70181917F010E94240695
:100F2000EC14FD04C1F78FEF0E9424068FEF0E949E
:100F300024060E942B068A878F71853071F4011177
:100F400016C0CE010E94190681E0DF91CF910F916A
:100F5000FF90EF90DF90CF90089581E18D83CE01D7
:100F60000E941906CE010E94190680E0EECF88E5A6
:100F700092E00E942E06811102C085E1C4CF20E0DC
:100F800030E0A9016DE0CE010E946206882311F0D5
:100F900084E1B9CF0E942B068111FACFD2CF0F93F3
:100FA0004091F7025091F8026091F9027091FA02B3
:100FB000411551056105710599F0082F29E633E0C7
:100FC0008091690590916A050E946107882349F024
:100FD0001092F7021092F8021092F9021092FA029F
:100FE00081E00F9108950F93CF93C82F8091F6025F
:100FF000811105C0C1E08C2FCF910F9108954091D0
:1010000000015091010160910201709103010C2FC8
:1010100029E633E08091690590916A050E94610795
:10102000811102C0C0E0E7CFCC2321F381E00E9410
:10103000CF078823B9F31092F602DDCF8F929F92EB
:10104000AF92BF92EF92FF920F931F93CF934B01FA
:101050005C01C42F8091000190910101A0910201D7
:10106000B091030188159905AA05BB0551F181E0EE
:101070000E94F30781110BC080E0CF911F910F9167
:10108000FF90EF90BF90AF909F908F90089589E66A
:10109000E82E83E0F82E00E012E030E020E0B50119
:1010A000A4018091690590916A050E94BF0688237A
:1010B00019F38092000190920101A0920201B09276
:1010C00003014091F6024C2B4093F60281E0D5CF0C
:1010D0008F929F92AF92BF92CF92DF92EF92FF9248
:1010E000CF9322E836E030936A0520936905882380
:1010F00009F46DC040E060E070E0CB010E941E0882
:1011000081110BC080E0CF91FF90EF90DF90CF90E6
:10111000BF90AF909F908F900895809127058F7713
:1011200089F78091330590913405A0913505B091F0
:10113000360584369105A105B10520F3C0902F0531
:10114000D0903005E0903105F0903205C114D10403
:10115000E104F104B9F240E0C701B6010E941E08A3
:10116000882381F2809174039091750381159240D8
:1011700049F6A0917903AA2329F26091770370912F
:1011800078036115710509F4BDCF20917603222300
:1011900009F4B8CFA093A0062093920690E080E0D7
:1011A00030E0E1E0F0E0C82FAF01082E02C0440FAC
:1011B000551F0A94E2F72417350769F041E0480FFC
:1011C00001968930910579F740939B069BCFC12CFE
:1011D000D12C7601C0CF80939B0620917F03309164
:1011E000800350E040E02115310541F420918D034A
:1011F00030918E0340918F0350919003209393067A
:1012000030939406409395065093960646015701F5
:10121000860E971EA11CB11C8092A1069092A20678
:10122000A092A306B092A406E0917A03F0917B030A
:10123000F093A706E093A606B0E00E943224DC01FA
:10124000CB01880D991DAA1DBB1D8093A806909304
:10125000A906A093AA06B093AB0625E0EE0FFF1FE8
:101260002A95E1F7E150FE4FEF2FFF27E6958E0F0D
:101270009F1FA11DB11D80939C0690939D06A09376
:101280009E06B0939F0680907C0390907D03B12CC6
:10129000A12C8114910441F48090890390908A03D9
:1012A000A0908B03B0908C03C81AD90AEA0AFB0AF3
:1012B000C80CD91CEA1CFB1C04C0F694E794D79414
:1012C000C794CA95D2F7C0929706D0929806E0923A
:1012D0009906F0929A0685EFC8168FE0D806E104C9
:1012E000F10428F48CE08093A50681E00CCF80E126
:1012F00025EFC2162FEFD206E104F104A0F380918E
:10130000950390919603A0919703B09198038093D1
:10131000A8069093A906A093AA06B093AB0680E214
:10132000E2CF4F925F926F927F928F929F92AF9295
:10133000BF92CF92DF92EF92FF920F931F93CF93C2
:10134000DF93EC01423051056105710590F480E0B6
:10135000DF91CF911F910F91FF90EF90DF90CF9091
:10136000BF90AF909F908F907F906F905F904F90C5
:10137000089589859A85AB85BC850196A11DB11D0F
:1013800084179507A607B70710F3CB88DC88ED888C
:10139000FE888F89803109F042C0BB27A72F962F86
:1013A000852F480159012A013B01C80ED91EEA1EAA
:1013B000FB1E8091000190910101A0910201B0916A
:1013C0000301C816D906EA06FB0699F58F89803114
:1013D000C1F5B301A201552766277727440F551F92
:1013E00047595C4FFA01918280828091F6028160B8
:1013F0008093F6028A89823080F08D819E81AF8150
:10140000B8858C0D9D1DAE1DBF1D8093F702909376
:10141000F802A093F902B093FA0281E099CFDB01C0
:10142000CA01E7E0B695A79597958795EA95D1F714
:10143000B8CF40E0C701B6010E941E088111C6CF97
:1014400086CFB301A2014F77552766277727440F30
:10145000551F440F551F47595C4FFA0180829182F6
:10146000A282B382C2CF8F929F92AF92BF92CF924D
:10147000DF92EF92FF920F931F93CF93DF93FC01C4
:1014800081859285A385B4850196A11DB11D841720
:101490009507A607B70770F480E0DF91CF911F9101
:1014A0000F91FF90EF90DF90CF90BF90AF909F9003
:1014B0008F90089583889488A588B688878980311D
:1014C00089F5BB27A72F962F852FE9016A017B019C
:1014D0008F01BC01CD01680D791D8A1D9B1D809077
:1014E000000190900101A0900201B09003018616C6
:1014F0009706A806B90601F5F8018789803111F52C
:10150000DD24EE24FF24F601EE0FFF1FE759FC4F08
:1015100080819181B0E0A0E088839983AA83BB8316
:1015200081E0BBCFDB01CA01C7E0B695A7959795CF
:101530008795CA95D1F7C9CF40E00E941E08811156
:10154000DBCFAACFE894C7F8DD24EE24FF24F60110
:10155000EE0FFF1FEE0FFF1FE759FC4F80819181B7
:10156000A281B381BF70D8CF4F925F926F927F926A
:10157000AF92BF92CF92DF92EF92FF920F931F93A1
:10158000CF93DF9300D000D0CDB7DEB78C01498375
:101590005A836B837C835901C12CD12C7601412C59
:1015A00082E0582E612C712C49815A816B817C819B
:1015B0009E012F5F3F4FC8010E94330A882339F1F3
:1015C000F8018585A301920104C0220F331F441F37
:1015D000551F8A95D2F7DA01C901C80ED91EEA1E35
:1015E000FB1E49815A816B817C818789803111F191
:1015F00088EF9FEFAFEFBFE0481759076A077B07F7
:1016000098F2F501C082D182E282F38281E00F90EC
:101610000F900F900F90DF91CF911F910F91FF903E
:10162000EF90DF90CF90BF90AF907F906F905F90E2
:101630004F90089588EF9FEFA0E0B0E0DDCFCF930B
:10164000DF93FC012581222321F080E0DF91CF91FF
:101650000895EC018091A506803159F582E08583DB
:10166000178A108E118E128E8091A6069091A70671
:10167000B0E0A0E025E0880F991FAA1FBB1F2A95A4
:10168000D1F7838B948BA58BB68B8EE896E09C8FDD
:101690008B8F81E08C831E821F82188619861A86A2
:1016A0001B861C861D861E861F86188A198A1A8A22
:1016B000CDCF803251F683E085834091A8065091CA
:1016C000A9066091AA067091AB06478B508F618F77
:1016D000728F9F012D5E3F4F8EE896E00E94B40A04
:1016E0008111D3CFB2CF8F929F92AF92BF92CF9200
:1016F000DF92EF92FF920F931F93CF93DF93EC0152
:101700008D8181110EC080E0DF91CF911F910F91EB
:10171000FF90EF90DF90CF90BF90AF909F908F9011
:1017200008950B891C892D893E8904171507260702
:10173000370748F34A015B01823031F48A869B8681
:10174000AC86BD8681E0E0CF81149104A104B10490
:1017500049F41E821F82188619861A861B861C86EB
:101760001D86F0CF0A851B852C853D85EB8DFC8D74
:10177000858590E00996B901A80141505109610998
:101780007109082E04C076956795579547950A9478
:10179000D2F775016401E1E0CE1AD108E108F10841
:1017A00004C0F694E794D794C7948A95D2F7C416E8
:1017B000D506E606F70620F0012B022B032B11F5C8
:1017C0008F89988DA98DBA8D8E839F83A887B987BD
:1017D0008E010A5F1F4FC114D104E104F10409F422
:1017E000ADCF4E815F816885798598018B8D9C8D09
:1017F0000E94330A91E0C91AD108E108F108811169
:10180000EACF81CFC41AD50AE60AF70AE1CF3F92A0
:101810004F925F926F927F928F929F92AF92BF9200
:10182000CF92DF92EF92FF920F931F93CF93DF93AC
:10183000CDB7DEB72C970FB6F894DEBF0FBECDBF85
:101840005C01DC015B968D909C905C9716964D90A8
:101850005D906D907C90199741145104610471045E
:1018600009F468C0BFEF4B1A5B0A6B0A7B0A312C84
:10187000F40181859285A385B4859C01AD012F5F1C
:101880003F4F4F4F5F4F29873A874B875C877301E4
:1018900062011D821E821F821886F4018185928555
:1018A000A385B4852D813E814F815885281739073E
:1018B0004A075B0708F056C089859A85AB85BC85C9
:1018C0008C159D05AE05BF0550F482E0C82ED12CC5
:1018D000E12CF12C92E0492E512C612C712C9E01AF
:1018E0002F5F3F4FB701A601C4010E94330A88232E
:1018F000C9F189819A81AB81BC81892B8A2B8B2B81
:1019000009F1260137019FEF491A590A690A790A34
:101910002D813E814F8158852F5F3F4F4F4F5F4F45
:101920002D833E834F8358873FEFC31AD30AE30AC0
:10193000F30AB3CFF4014080518062807380332476
:10194000339496CFC414D504E604F70409F70FEFD7
:101950001FEF2FEF3FE0B701A601C4010E949109DC
:10196000811119C080E02C960FB6F894DEBF0FBE2F
:10197000CDBFDF91CF911F910F91FF90EF90DF903E
:10198000CF90BF90AF909F908F907F906F905F901F
:101990004F903F900895D50116964D915D916D91B0
:1019A0007C911997411551056105710539F0970131
:1019B0008601C4010E9491098823A1F2D5011696DF
:1019C000CD92DD92ED92FC921997332051F0D70120
:1019D000C6010196A11DB11DF40180839183A283EC
:1019E000B383F5018789908DA18DB28D892B8A2BC8
:1019F0008B2B39F48481C78AD08EE18EF28E806879
:101A00008483F50184818062848381E0ACCF1F935D
:101A1000CF93DF93FC0125812223D1F1162FEC0116
:101A2000848187FF2AC0668577858089918941E016
:101A30000E941E08882361F1EA8980E2E89FF00194
:101A40001124E759FC4F309719F18D81823040F411
:101A50008B899C89AD89BE89848F958FA68FB78F1E
:101A60008F89988D938F828F8F89988DA98DBA8D4C
:101A7000B58BA48B8C818F778C83111103C08C81E3
:101A80008F7E8C83812FDF91CF911F910C94F30770
:101A900080E0DF91CF911F910895FF920F931F93E4
:101AA000CF93DF93EC018D81813041F090E080E0B5
:101AB000DF91CF911F910F91FF9008958C8181FF4D
:101AC000F5CF82FD1BC00091690510916A05C80120
:101AD0000E944C060E942B06F82EC8010E9419068F
:101AE0008FEFF812E3CF8C8185FF1BC060E0CE0141
:101AF0000E94070D8C818F7D8C83D8CF4B895C89A8
:101B00006D897E898A859B85AC85BD8584179507FF
:101B1000A607B707C1F2CE010E94730B8111D3CF84
:101B2000C5CF4091F7025091F8026091F90270918F
:101B3000FA02452B462B472B21F080E00E94CF076D
:101B4000B5CF80618C832A853B85317080E092E03F
:101B5000821B930BADCFCF93DF93EC0161E00E942A
:101B6000070D882311F01D8281E0DF91CF91089548
:101B70002F923F924F925F926F927F928F929F929D
:101B8000AF92BF92CF92DF92EF92FF920F931F938B
:101B9000CF93DF9300D000D01F92CDB7DEB77C018A
:101BA0005B01342E5D83DC0115968C911597813095
:101BB00009F0CEC014962C9021FECAC022FCB4C0FD
:101BC000C32CDD8022947FE027222094B22DB170B7
:101BD0002B2ED7011A964D915D916D917C911D9799
:101BE000C114D10409F428C15B968D919C915C9736
:101BF000FC0174807A948A019B0169E036952795EF
:101C0000179507956A95D1F770228A0111707110A6
:101C100020C001151105E9F416964D915D916D9165
:101C20007C911997411551056105710509F099C01D
:101C300057968D919D910D90BC91A02D0097A10577
:101C4000B10509F0B0C0C7010E94070C882309F450
:101C50007FC080E092E0801B910B46018C159D05B2
:101C600008F44C01D7015B964D915C915C971696F8
:101C70008D919D910D90BC91A02D0297A109B10964
:101C8000FA01258504C0880F991FAA1FBB1F2A953A
:101C9000D2F74685578560897189840F951FA61FE5
:101CA000B71F9C01AD01270D311D411D511D29019B
:101CB0003A01811432E0930609F07BC08091000163
:101CC00090910101A0910201B09103018415950545
:101CD000A605B70559F48FEF9FEFDC018093000153
:101CE00090930101A0930201B0930301022D95018D
:101CF000B301A2018091690590916A050E94610774
:101D0000882331F19EEFB91AC818D908F7018285E6
:101D10009385A485B585880D991DA11DB11D828768
:101D20009387A487B58755CFF7014389548965897F
:101D3000768982859385A485B585481759076A07F2
:101D40007B0709F43DCFC7010E94730B811138CF87
:101D500081E090E0D70113969C938E93129780E0D8
:101D600007C09E012F5F3F4F0E94330A811102C0BE
:101D700090E079C089819A81AB81BC81F701238D84
:101D8000348DF901278948EF5FEF60E070E0203182
:101D900021F048EF5FEF6FEF7FE084179507A6070C
:101DA000B70708F050CFF70186839783A087B187E4
:101DB00050CF0115110599F5D7011A964D915D91F6
:101DC0006D917C911D9753968D919D910D90BC9135
:101DD000A02D481759076A077B0708F181E00E9488
:101DE000F307882309F4B4CF409200015092010117
:101DF00060920201709203018091F60281608093EB
:101E0000F602C80187599C4FD5019C01280D391D48
:101E1000FC012E173F0759F04D914193FACF41E055
:101E2000C301B2010E941E088111EBCF91CF281B84
:101E3000390BA20EB31E68CFF70183899489A58957
:101E4000B68984179507A607B70738F48481438BB2
:101E5000548B658B768B80688483F701848183FD46
:101E60001AC0832D9D810F900F900F900F900F90AF
:101E7000DF91CF911F910F91FF90EF90DF90CF9066
:101E8000BF90AF909F908F907F906F905F904F909A
:101E90003F902F90089561E0C7010E94070D8823AD
:101EA00009F456CFDECFCF93DF931F92CDB7DEB7C5
:101EB000698341E050E0BE016F5F7F4F0E94B80D23
:101EC0000F90DF91CF910895FC01DB0112968D9167
:101ED0009C911397938382838AE391E0918380831B
:101EE00014968C911497848315968C9115978583FD
:101EF00016964D915D916D917C911997468357830C
:101F0000608771871A964D915D916D917C911D97B7
:101F100042875387648775871E964D915D916D91B9
:101F20007C91519746875787608B718B52968C9125
:101F30005297828B53964D915D916D917C915697FE
:101F4000438B548B658B768B57964D915D916D913C
:101F50007C915A97478B508F618F728F5B968D91D2
:101F60009C91948F838F08950895FC01818D928DAB
:101F7000009719F061E00C94070D0895DC01599663
:101F8000ED91FC913097B9F083899489A589B68940
:101F90004285538564857585841B950BA60BB70B0D
:101FA000811520E89207A105B10538F08FEF9FE772
:101FB000A0E0B0E0089590E080E00895DC0159963B
:101FC0008D919C91009739F0DC01ED91FC9104809A
:101FD000F581E02D099490E080E00895CF93DF93A0
:101FE000EC01E98DFA8D309749F481E090E09B8314
:101FF0008A8390E080E0DF91CF910895138212826E
:10200000898D9A8D0E94B80DE98DFA8D22813381D8
:10201000232B59F7F0CFCF93DF931F92CDB7DEB7C5
:102020006983DC01ED91FC910280F381E02D41E0B8
:1020300050E0BE016F5F7F4F09950F90DF91CF9108
:1020400008952F923F924F925F926F927F928F925C
:102050009F92AF92BF92CF92DF92EF92FF920F9337
:102060001F93CF93DF9300D01F92CDB7DEB7FC0153
:102070008581811118C08FEF9FEF0F900F900F9007
:10208000DF91CF911F910F91FF90EF90DF90CF9054
:10209000BF90AF909F908F907F906F905F904F9088
:1020A0003F902F900895848180FFE5CF4389548924
:1020B0006589768982859385A485B585312C212C07
:1020C000481759076A077B0719F022242394312CFB
:1020D0006F012101CE0101963C01DF011696BB8301
:1020E000AA834114510409F4C5C0F6014285538501
:1020F000648575854A01F1E09F22D6015B968D913A
:102100009C915C978A019B01E9E03695279517958C
:102110000795EA95D1F71596EC91E230E9F5FC01C7
:10212000628D738D848D958D600F711F821F931F3B
:10213000A12C22E0B22EA818B9084A145B0408F4B6
:102140005201F601248126FD04C0A114F2E0BF066D
:1021500071F4009100011091010120910201309170
:102160000301061717072807390709F05EC040E08A
:102170000E941E08882309F47ECFC40187599C4F12
:10218000D3019C012A0D3B1DFC012E173F0709F4CA
:102190006CC041914D93F9CFDC011496BC90BA9478
:1021A000B0228114910479F4B1100DC0452B462B57
:1021B000472B69F5F6018789908DA18DB28D8683B5
:1021C0009783A087B187D6015B96ED91FC915C97D0
:1021D00016966D917D918D919C9119976250710920
:1021E00081099109258504C0660F771F881F991FF3
:1021F0002A95D2F70685178520893189600F711FCE
:10220000821F931F6B0D711D811D911D91CFD601F2
:1022100016964D915D916D917C9119972A813B8124
:102220000E94330A8111CFCF26CF7301850194011B
:10223000AB01BC018091690590916A050E94BF06BF
:10224000882309F418CF6A0C7B1CF60182859385DC
:10225000A485B5858A0D9B1DA11DB11D828793871D
:10226000A487B5874A185B083CCF281B390B620E40
:10227000731EEBCF2A94232809F0FDCE898190E0CC
:10228000FCCEFC01818D928D009711F00C942110F1
:102290008FEF9FEF08950F931F93CF93DF93EC0180
:1022A000898D9A8D10E000E0009799F00E9421102E
:1022B0008C010F3F100769F0898D9A8DFC014285D2
:1022C00053856485758541505109610971090E94E2
:1022D000730BC801DF91CF911F910F9108954F9219
:1022E0005F926F927F928F929F92AF92BF92CF92A6
:1022F000DF92EF92FF920F931F93CF93DF9300D063
:1023000000D000D01F92CDB7DEB78C011982A0900B
:102310006B05B0906C05D50114968D919C91159725
:10232000892B09F468C011968D919C9112972C917C
:1023300031E03093BF052093E1051092C005109263
:10234000E205DC01ED91FC910280F381E02D41E09A
:1023500050E0BE016F5F7F4F0995019709F04BC0B8
:1023600080E00E948903811146C0D12CC12CB7E0C6
:102370006B2E712CF501848195817301EC18FD0899
:102380008E159F0508F47C0141E0C3018E199F0959
:10239000C816D90608F440E06E2DD5018C910E9434
:1023A0009E0410927205809371058E151F0419F515
:1023B00088248394912C8C0E9D1E8C0C9D1C2401D2
:1023C000C401841995098E159F0570F4F50181816A
:1023D0009281DC01ED91FC910284F385E02D099559
:1023E000F40181934F01ECCFCE0CDF1CF7E0CF1648
:1023F000D10408F4BFCFE981EF77FA81FB804D81EA
:102400005E818F81282F30E094E0359527959A954D
:10241000E1F7922F990F990F291B220F280FD8014E
:102420002C93852F90E024E0959587952A95E1F7E8
:10243000982F990F990F891B880F850F11968C93F0
:102440001197642F70E034E0759567953A95E1F740
:10245000862F880F880F681B660F640F12966C9387
:1024600012974F2D50E064E0559547956A95E1F736
:10247000842F880F880F481B440F4F0D13964C93E1
:1024800013972F2F30E074E0359527957A95E1F773
:10249000822F880F880F281B220F2F0F14962C9342
:1024A00014978E2F90E0F4E095958795FA95E1F7D3
:1024B000982F990F990F891B880F8E0F15968C9363
:1024C000C80127960FB6F894DEBF0FBECDBFDF91CF
:1024D000CF911F910F91FF90EF90DF90CF90BF9021
:1024E000AF909F908F907F906F905F904F900895E6
:1024F0000F931F93CF938C01C62F0E94FC056C2F66
:102500006460C8010E94FC056C2F6B7FC8010E94AB
:10251000FC0583EC90E00197F1F7CF911F910F91AB
:1025200008950F931F93CF93DF938C01D62FC42F61
:10253000607F642B0E94781280E1D89FB001112443
:102540006C2BC801DF91CF911F910F910C947812E1
:10255000CF93DF93CDB7DEB728970FB6F894DEBFE1
:102560000FBECDBF98E0EAE0F1E0DE0111960190E8
:102570000D929A95E1F790910C07981708F48FEF58
:1025800090E0880F991F21E030E02C0F3D1F820F53
:10259000931FFC016081606840E084E097E028962A
:1025A0000FB6F894DEBF0FBECDBFDF91CF910C9474
:1025B000911240E061E084E097E00E9491128BE389
:1025C0009FE10197F1F780910D07882319F080E0D2
:1025D0000C94A812089541E00E94911281E090E0CD
:1025E0000895CF92DF92EF92FF921F93CF93DF93E4
:1025F000EC0180E2689FF0011124E759FC4F9385BC
:10260000917161F0842F827449F080E0DF91CF9165
:102610001F91FF90EF90DF90CF900895142F6A8B59
:102620008091000190910101A0910201B0910301FC
:102630008E879F87A88BB98BC488D588F12CE12C15
:102640007601DD24CC24CF8AD88EE98EFA8E828D55
:10265000938DB0E0A0E0AC01BD014C295D296E294D
:102660007F294F8B588F698F7A8F83858871B1F45A
:10267000848D958DA68DB78D8B8B9C8BAD8BBE8BF2
:1026800081E08D831F701C831E821F82188619862D
:102690001A861B861C861D8681E0B8CF803109F022
:1026A000B4CF9E012D5E3F4F8B8D9C8D0E94B40A4E
:1026B000882309F4AACF84E0E4CFFB010190002035
:1026C000E9F73197AF01461B570BDC01ED91FC9107
:1026D0000280F381E02D0994CF93DF93EC018A858A
:1026E0009B85288131E03093BF052093E10510924E
:1026F000C0051092E2050E945D1381E00E948903EB
:102700001F82DF91CF91089560E671E08DE197E03F
:102710000E946C1360E671E081E197E00C946C1309
:102720008F929F92AF92BF92EF92FF920F931F935F
:10273000CF93DF93CDB7DEB7A1970FB6F894DEBF86
:102740000FBECDBF7C01FA01CB0119A2223008F4E3
:102750002AE08E010F5D1F4F822E912CB12CA12CEF
:10276000BF01A50194010E948324F901CA016A30C6
:102770000CF5605DD8016E938D01232B242B252B46
:1027800079F790E080E0109721F0BD01C7010E9429
:102790005D13A1960FB6F894DEBF0FBECDBFDF91DB
:1027A000CF911F910F91FF90EF90BF90AF909F90AE
:1027B0008F900895695CDECF462F50E070E060E0B6
:1027C0002AE00C9490132F923F924F925F926F9257
:1027D0007F928F929F92AF92BF92CF92DF92EF92B1
:1027E000FF921F93CF93DF93EC016A017B01722E5E
:1027F000AB019601CB01B6010E94952662E671E01D
:10280000811126C046015701E894B7F82FEF3FEF3A
:102810004FE75FE7C501B4010E94952681110CC006
:102820002FEF3FEF4FE75FE7C501B4010E940B2395
:1028300066E671E0181664F02FEF3FEF4FE75FE4B4
:10284000C701B6010E941A261816B4F46AE671E0B0
:10285000CE01DF91CF911F91FF90EF90DF90CF904D
:10286000BF90AF909F908F907F906F905F904F90B0
:102870003F902F900C945D132FEF3FEF4FE75FECED
:10288000C701B6010E940B2387FDE0CF20E030E0B6
:10289000A901C701B6010E940B23312C212C87FF0F
:1028A0000DC0E881F9810190F081E02D6DE2CE014B
:1028B00009951C01F7FAF094F7F8F09410E060E045
:1028C00070E080E09FE3711641F020E030E040E2EC
:1028D00051E40E9418251F5FF6CFA70196010E94C0
:1028E000AC242B013C010E94C4254B015C012AE071
:1028F000BC01A401CE010E9490137C01E20CF31CE8
:102900001123E1F1C501B4010E9410239B01AC0128
:10291000C301B2010E94AB244B015C01E881F98143
:102920000190F081E02D6EE2CE010995E80EF91ECE
:10293000115020F120E030E040E251E4C501B40143
:102940000E9471232B013C010E94C4254B01B12C34
:10295000A12C2AE0B501A401CE010E949013E80E3B
:10296000F91EC501B4010E9410239B01AC01C301F3
:10297000B2010E94AB244B015C01DACFC701DF91A9
:10298000CF911F91FF90EF90DF90CF90BF90AF90CD
:102990009F908F907F906F905F904F903F902F907F
:1029A00008950F931F93CF93DF93EC010E945D1363
:1029B0008C016EE671E0CE010E945D13800F911FC5
:1029C000DF91CF911F910F9108956115710511F05D
:1029D0000C945D1390E080E00895CF92DF92FF9217
:1029E0000F931F93CF93DF93EC016B01142F50E0F3
:1029F00070E060E0C6010E94DA276FEF610F41E0EE
:102A000088810E949E0410927205809371058A85C8
:102A10009B85DC01ED91FC910284F385E02D099505
:102A20008C01F12C8A859B85DC01ED91FC91008461
:102A3000F185E02D0995892B89F08A859B85DC013C
:102A4000ED91FC910284F385E02D0995882331F006
:102A5000F601EF0DF11D8083F394E4CF11270230CE
:102A60001105E1F06CF401301105A9F08885998514
:102A7000DF91CF911F910F91FF90DF90CF9008953C
:102A80000E3F110571F083E090E00F3F110571F7E3
:102A900099878887EBCF19861886E8CF81E090E088
:102AA000F7CF82E090E0F4CF85ED8093BC00809179
:102AB000BB059091BC05A091BD05B091BE050796E0
:102AC000A11DB11D23E0B695A795979587952A95E9
:102AD000D1F72091BC0024FD03C01092B9050895E0
:102AE0004091BB055091BC056091BD057091BE053C
:102AF000452B462B472B69F30097A105B10541F003
:102B00002AE22A95F1F700C00197A109B109E1CFA6
:102B10008091BA050C9468033F924F925F926F9236
:102B20007F928F929F92AF92BF92CF92DF92EF925D
:102B3000FF920F931F93CF93DF93CDB7DEB72B9701
:102B40000FB6F894DEBF0FBECDBF7C01FE013196FB
:102B5000CE010C966F0130E23193E817F907E1F7E7
:102B6000DA0130E087E09D91B92E992309F43CC049
:102B70009E32F1F48A30C9F480E02B960FB6F894B7
:102B8000DEBF0FBECDBFDF91CF911F910F91FF90A0
:102B9000EF90DF90CF90BF90AF909F908F907F90FD
:102BA0006F905F904F903F90089538E08AE0DBCFC0
:102BB000EBECF0E04491442321F031969413FACFEA
:102BC000DBCF8317C8F24FED490F4E35A8F64FE91A
:102BD000490F4A3118F440EEB42EB90EF601E30F56
:102BE000F11DB0823F5FBFCF8981803229F2322E42
:102BF0008B01DB015B968D919C915C97F701948F23
:102C0000838F16961D921D921D921C921997FB019F
:102C10001286138614861586F80182859385A4850D
:102C2000B585438954896589768984179507A607F0
:102C3000B70708F04DC025E0B695A79597958795FD
:102C40002A95D1F7F82FFF70AF2ED80115968C91E9
:102C5000823008F491CFC8010E94211097FD8CCFDB
:102C6000F80182859385A485B5854F96A11DB11D78
:102C700082879387A487B587F0E2AF9EB0011124C5
:102C800067597C4F6115710509F476CFDB018C9192
:102C9000882341F0853E09F062C0BB2029F0BB24A7
:102CA000B394BACFB1100EC0F701A28A809100018F
:102CB00090910101A0910201B0910301868797874D
:102CC000A08BB18BDB018C918111E9CFBB24B39434
:102CD000832D8271823109F04FCFBB2009F44DC0A2
:102CE000F701668577858089918941E00E941E08F9
:102CF000882309F441CFD70152968C91B0E28B9F83
:102D0000C001112487599C4F009709F435CFFC016D
:102D10003A9626E1DF011D922A95E9F72BE0F601AC
:102D2000DC0101900D922A95E1F721E238E2FC01E5
:102D3000318B208B40E058E057874687338B228BBE
:102D4000318F208F578B468B81E00E94F3078823B9
:102D500009F412CF432DD70152966C910AC04BE073
:102D600050E0C6010E94CD27892B09F055CF432D95
:102D70006A2DC7010E94F11200CFF80185818230CF
:102D800009F4FACEC8010E94070C882309F4F4CE96
:102D9000D8015B96ED91FC915C9716968D909D9075
:102DA000AD90BC901997B2E08B1A9108A108B108B8
:102DB000858504C0880C991CAA1CBB1C8A95D2F777
:102DC00086859785A089B189880E991EAA1EBB1E8B
:102DD000848124013501480E511C611C711C84142E
:102DE0009504A604B70409F1E1E04E1A5108610800
:102DF000710881E00E94F307882309F4BDCEE9E65B
:102E0000F3E0119289E695E08E179F07D1F7409283
:102E100000015092010160920201709203018091C1
:102E2000F60281608093F602DACFD8015B96ED91CD
:102E3000FC91258580E092E0A0E0B0E004C0880F1E
:102E4000991FAA1FBB1F2A95D2F7F80143895489FD
:102E500065897689840F951FA61FB71F838B948B76
:102E6000A58BB68BD70152961C9289E693E04FCF83
:102E7000EF92FF920F931F93CF93DF93EC017B01AF
:102E80008A011B821A8288EE93E0A0E0B0E08C8376
:102E90009D83AE83BF8386E491E0998388838DE12F
:102EA00090E00E94A8269A8F898F009779F02DE1F3
:102EB000F701DC0101900D922A95E1F74CE050E01A
:102EC000B801CE010C960E94EC27188EDF91CF91AD
:102ED0001F910F91FF90EF9008954F925F926F9224
:102EE0007F928F929F92AF92BF92CF92DF92EF929A
:102EF000FF9240E264ED72E08DE197E00E94ED14F4
:102F000069E771E084ED92E00E946E2190935F0387
:102F100080935E0369E771E090E080E00E946E219B
:102F2000909349038093480369E771E090E080E063
:102F30000E946E2144E16AE473E081E197E00E941F
:102F4000ED1480914803909149030E946A21609397
:102F5000D0027093D1028093D2029093D3028091D9
:102F60005E0390915F030E946A216093CC0270938C
:102F7000CD028093CE029093CF028AE493E00E9428
:102F80006A214B015C01C090D002D090D102E09048
:102F9000D202F090D30220E030E04DE851E4C701C6
:102FA000B6010E9471232B013C012DE33AE043E777
:102FB00053E4C701B6010E94AC249B01AC01C301DC
:102FC000B2010E9418250E9492252B013C0120E0AD
:102FD00030E048EC52E46091CC027091CD028091D7
:102FE000CE029091CF020E9418256B017C0124E350
:102FF00030E843EC50E4C301B2010E9471239B010D
:10300000AC01C701B6010E94712320E030E54DE715
:1030100054E40E94182520E034E244E759E40E9479
:103020007123609344037093450380934603909308
:10303000470320E030E44CE156E4C501B4010E94AE
:1030400071236093400370934103809342039093F4
:103050004303FF90EF90DF90CF90BF90AF909F9091
:103060008F907F906F905F904F9008951F920F9276
:103070000FB60F9211242F933F938F939F93AF938B
:10308000BF938091610390916203A0916303B0911B
:1030900064033091600323E0230F2D3758F5019628
:1030A000A11DB11D2093600380936103909362037F
:1030B000A0936303B09364038091650390916603CA
:1030C000A0916703B09168030196A11DB11D809383
:1030D000650390936603A0936703B0936803BF9161
:1030E000AF919F918F913F912F910F900FBE0F90B5
:1030F0001F90189526E8230F0296A11DB11DD2CF6F
:103100001F920F920FB60F9211242F933F934F935C
:103110005F936F937F938F939F93AF93BF93EF933F
:10312000FF9383EE95E00E941402FF91EF91BF910F
:10313000AF919F918F917F916F915F914F913F914F
:103140002F910F900FBE0F901F9018951F920F9206
:103150000FB60F9211242F938F939F93EF93FF93AA
:10316000E091F305F091F4058081E091F905F0918B
:10317000FA0582FD1BC090818091FC058F5F8F73E3
:103180002091FD05821741F0E091FC05F0E0ED5142
:10319000FA4F958F8093FC05FF91EF919F918F914E
:1031A0002F910F900FBE0F901F9018958081F4CF34
:1031B0001F920F920FB60F9211242F933F934F93AC
:1031C0005F936F937F938F939F93AF93BF93EF938F
:1031D000FF938091B900887F803609F44AC0F0F5EA
:1031E000883209F4A7C018F5803109F49BC0B8F4FF
:1031F000882309F4F9C0883009F494C0FF91EF9155
:10320000BF91AF919F918F917F916F915F914F91FE
:103210003F912F910F900FBE0F901F9018958831FE
:1032200009F488C0803251F78093B70514C0803408
:1032300009F49DC040F48033B9F38833F9F68093E4
:10324000B70585ECB0C0803509F485C0883509F430
:1032500096C0883499F60E945415D0CF883909F465
:103260008CC038F5883729F050F4883611F0803753
:1032700029F683E08093B90510923E0357C0883841
:1032800009F47BC0803919F0803809F0B7CF8091FC
:103290003E03803208F071C0E0913E0381E08E0F62
:1032A00080933E038091BB00F0E0E25EFC4F8083A0
:1032B0003DC0803B39F0E0F4803A09F479C0883AA7
:1032C00009F09CCF84E08093B90510921D03109201
:1032D0001C03E0916F05F0917005099580911C0326
:1032E00081110FC081E080931C031092FC0209C081
:1032F000803C09F4A6CF883C09F4A3CF883B09F0B1
:103300007DCFE0911D0381E08E0F80931D03F0E0DF
:10331000E450FD4F80818093BB0090911D0380910C
:103320001C0329C0809194058093BB0085EC809399
:10333000BC0064CF9091B6058091B505981758F5FB
:10334000E091B60581E08E0F8093B605F0E0EB5674
:10335000FA4F8081E9CFE091B60581E08E0F80932E
:10336000B6058091BB00F0E0EB56FA4F8083909158
:10337000B6058091B5059817C8F285E8D8CFE091D9
:10338000B60581E08E0F8093B6058091BB00F0E01A
:10339000EB56FA4F80838091B80581115CCF81E0B4
:1033A0008093930584EA8093BC001092B90526CFE0
:1033B00085EC8093BC001092B90580913E03803269
:1033C00030F4E0913E03F0E0E25EFC4F1082609149
:1033D0003E0370E0E0916D05F0916E058EE193E0A3
:1033E000099510923E030ACF1092B70534CFEC0135
:1033F00061E771E083EE95E00E94E514BE0183EE83
:1034000095E00E94D114FFCF0F931F93E3EEF5E0F8
:103410001382128248EE53E060E070E044835583EB
:103420006683778386E191E09183808385EC90E0E9
:103430009587848784EC90E09787868780EC90E07E
:10344000918B808B81EC90E0938B828B82EC90E06F
:10345000958B848B86EC90E0978B868B118E128EE9
:10346000138E148EABECB6E013961C921E9212973C
:1034700014964D935D936D937C93179788E291E03A
:1034800011969C938E93E0E8F6E080E580831182AC
:10349000E2E8F6E0158216821186138602E010E05B
:1034A00020E030E0048715872687378713A215A60A
:1034B00014A68AE391E093A782A717A6EDE1F7E0AF
:1034C00013821482158216821782B387A2878FE631
:1034D00080838BE791E092838183E1E1F7E01382BF
:1034E0001482158216821782B387A28780E78083B1
:1034F0008FE791E092838183E4E0F7E01382128208
:1035000088E591E091838083118687E2848380E15E
:10351000828782E083871486E9EEF6E013821282C6
:10352000448355836683778386E491E09183808327
:10353000128E118E1486E7EDF6E011821082168647
:103540001786108A118A4283538364837583168297
:1035500017821086118684E893E1938782878DE62F
:1035600097E1958784871F910F910895CF93DF93FB
:10357000CDB7DEB7CE58D1090FB6F894DEBF0FBE77
:10358000CDBF789484B5826084BD84B5816084BDEC
:1035900085B5826085BD85B5816085BD80916E00F1
:1035A000816080936E001092810080918100826022
:1035B000809381008091810081608093810080915F
:1035C00080008160809380008091B100846080934E
:1035D000B1008091B00081608093B00080917A004A
:1035E000846080937A0080917A00826080937A0070
:1035F00080917A00816080937A0080917A0080685F
:1036000080937A001092C1000E945103E091F3056B
:10361000F091F40582E08083E091EF05F091F005F0
:103620001082E091F105F091F2058FEC8083109209
:10363000FB05E091F705F091F80586E08083E091C5
:10364000F505F091F605808180618083E091F505B4
:10365000F091F605808188608083E091F505F09116
:10366000F605808180688083E091F505F091F6058C
:1036700080818F7D80831092D8061092D706109299
:10368000E5061092E6061092E7061092E80668EB4F
:103690007BE080E090E00E94580162E871E08DE1FB
:1036A00097E00E946C136CE271E080E090E00E9471
:1036B000580168E871E08DE197E00E946C136CE2BC
:1036C00071E080E090E00E94580160E971E083EED3
:1036D00095E00E94D11460E771E083EE95E00E94CE
:1036E000D1140E9451031092090780910F07823074
:1036F00018F098E09093090780930C0762E370E05C
:1037000080E090E00E9458016091100784E097E00B
:103710000E94FC0568EE73E080E090E00E94580192
:1037200060E384E097E00E9478120BE416E4C8019D
:103730000197F1F760E384E097E00E947812C801F6
:103740000197F1F760E384E097E00E94781283E547
:1037500092E00197F1F760E284E097E00E9478122E
:1037600060910907606240E084E097E00E94911256
:1037700084E080930A0740E06CE084E097E00E94D8
:1037800091120E94D91282E080930B0740E066E01C
:1037900084E097E00E94911240E062E084E097E0CC
:1037A0000E9491128BE39FE10197F1F788E08093EB
:1037B000100760E084E097E00E94FC056FE971E08B
:1037C00083EE95E00E94E5148AE00E94C800809193
:1037D000B106882321F08CEA96E00E94AB0D10928E
:1037E0008D0610928B0610928806109287068AE04A
:1037F000809386060E948A018B01809186060E9432
:10380000C80061E0809186060E94E700FFB6F89448
:1038100080913F03811124C0E8E1F1E08491ECE262
:10382000F1E09491E82FF0E0EE0FFF1FEC5FFE4F08
:10383000A591B491EC91E92321F461E08AE00E9422
:10384000E7008AE00E94C8008CB580618CBD8CB511
:1038500080648CBD8DE00E94C8008BE00E94C8008F
:1038600080913F038F5F80933F03FFBE82E580938B
:1038700080061092810680918006909181060E94B8
:1038800049065AE0F52E8FEF0E942406FA94F110B3
:10389000FACF82E896E00E944C0620E030E0A901D1
:1038A00060E082E896E00E946206F82E80938C0623
:1038B00081E0F81691F00E948A01601B710B613D56
:1038C000774058F381E08093870682E896E00E9473
:1038D00019068FEE91E00E94F7192AEA31E040E0E4
:1038E00050E068E082E896E00E94620682FF2AC00B
:1038F000F0928D0680918D06C12CD12CE12C30E404
:10390000F32E823019F0C12CD12C760120E030E06A
:10391000A90167E382E896E00E946206A70196018A
:1039200069E282E896E00E94620680938C06882312
:10393000D1F00E948A01601B710B613D774030F32A
:1039400088E0C1CF44E0F42E0E942B0680938C06C1
:10395000FA94F110F9CF8A3A11F082E0B4CF82E004
:1039600080938D06C7CF80918D068230D1F420E000
:1039700030E0A9016AE382E896E00E9462068823AB
:1039800011F086E0A0CF0E942B06807C803C19F4C9
:1039900083E080938D060E942B060E942B060E94D6
:1039A0002B0682E896E00E94190680E58093800647
:1039B0001092810681E00E946808882309F4BAC049
:1039C0008CEA96E00E941F0B882309F482CF67EBF4
:1039D00071E083EE95E00E94D114CE0189579F4F8C
:1039E0000E946F11C457DF4F8881CC58D0401F927E
:1039F0008F93C557DF4F8881CB58D0401F928F934C
:103A0000C657DF4F8881CA58D0401F928F93C7573F
:103A1000DF4F8881C958D0401F928F93C857DF4F1E
:103A20008881C858D0401F928F93C957DF4F888133
:103A3000C758D04090E08053984F9F938F9389EC64
:103A400091E09F938F936E01B3E7CB0ED11CDF9271
:103A5000CF920E94FB271EAE1DAE8AE391E09CAF81
:103A60008BAF21961FAE219719A218A29F8F8E8F20
:103A70001BA20FB6F894DEBF0FBECDBF312C612C58
:103A80005E01FBE3AF0EB11C2CEAE22E26E0F22E23
:103A90005A2C4B2C4C01832D962DF601E80FF91F63
:103AA00020812F3209F40196D601A80FB91FFE011B
:103AB000E85AFF4F30E020E08F014D914F3249F03E
:103AC000442339F001962F5F3F4F41932C3031054D
:103AD000A1F7200F311FD9011C92F601E80FF91F41
:103AE00020812F3209F40196382E692E8C0D9D1DF0
:103AF000FC0170801C821B829A8289821E8221E0D6
:103B0000A801B701CE0101960E948C15882309F403
:103B1000C4C3CE0101960E94AB0D711012C0ECEA35
:103B2000EE16E6E0FE0619F0C7010E94AB0D8BE031
:103B300092E0D1CE80E00E946808882309F4C9CEC3
:103B40003FCFD50115968C918111BDC321E0A8010D
:103B5000B701C5010E948C15782EBCEAEB16B6E0C1
:103B6000FB0609F4A4C3C7010E94AB0D7110A5C3E5
:103B700019A218A28AE391E09F8F8E8F1BA21C824C
:103B80001B829A8389831E824E01FEE18F0E911C57
:103B9000C4010E941F0BCE0101967C011401560145
:103BA0006FE270E0C5010E94E127009709F45AC056
:103BB000D5012C912F3271F4BFEFAB1ABB0A9E2DA9
:103BC0008F2D7101292E382E922D832D1701E92E6C
:103BD000F82EE6CF8A198D3008F08CE0682E712C13
:103BE000A301B501C8010E94EC27F801E60DF71DFD
:103BF0001082C7010E94AB0DF7018581882321F156
:103C00001EAE1DAE8AE391E09CAF8BAF21961FAE36
:103C10002197C357DF4FE880F980CD58D040EC0C96
:103C2000FD1CD7018C9181112CC0652D742DCE0106
:103C300001960E94640F4FE152E0BE016F5F7F4F1B
:103C4000C8010E9438173BC021E0A801B101C7019B
:103C50000E948C158823A1F2A60CB71CC1010E94FA
:103C6000AB0DB2CFC5018C199D09C357DF4F9983A6
:103C70008883CD58D040B101852D942D0E94640FCA
:103C8000C8CF19A218A28AE391E09F8F8E8F1BA242
:103C900021968FAD2197811150C0F80113821282B5
:103CA00088EE93E0A0E0B0E084839583A683B78399
:103CB00086E491E091838083128E118E1486D80160
:103CC00012968D919C9113979093EC068093EB063E
:103CD00014968D919D910D90BC91A02D8093ED0631
:103CE0009093EE06A093EF06B093F006F80180855E
:103CF0009185A285B3858093F1069093F206A093F7
:103D0000F306B093F406D8011C96E5EFF6E08D912A
:103D1000819387E0E230F807D1F7D8015996ED9109
:103D2000FC91F0930307E0930207309719F0858127
:103D300081111FC081E292E0CECD27E1A701652D60
:103D4000742DC4010E948C15882309F4A6CF852DFB
:103D5000942D0E94AB0D49A95AA96BA97CA9C40155
:103D60000E94730BB401CE0101960E94640FA7015B
:103D700064CF65E372E083EE95E00E94E514B6013E
:103D800083EE95E00E94D1140E94510380916B054F
:103D900090916C05009711F00E94442786E090E016
:103DA0000E94A8268C0188E6F80180838BEC96E0BF
:103DB00092838183138280E290E0958384831093C1
:103DC0006C0500936B050E94510381E0D8011396A6
:103DD0008C93C8010E94790481110CC062E472E0E6
:103DE00089EE96E00E94D11462E472E083EE95E0E1
:103DF0000E94D1146DE472E089EE96E00E94D11425
:103E000063E872E083EE95E00E94D114DD24D39440
:103E100000E010E0EE24E394F12C1BA21AA219A2F8
:103E20001E8EEBEDF0E081E08C3051F09491823009
:103E300009F49F5F21E0280F3196992309F4C7C147
:103E40008F8FD8A28091D7069091D806009709F459
:103E5000C0C1019709F4EFC160ED77E080E090E028
:103E60000E9458010E94D91280E00E94A81268EBBB
:103E700072E084E097E00E94E51460915E03709127
:103E80005F0384E097E00E94E5146EEB72E084E04B
:103E900097E00E94E51481E00E94A81261EC72E0B4
:103EA00084E097E00E94E5146AE473E084E097E020
:103EB0000E94E5146EEB72E084E097E00E94E51446
:103EC0000E948A012B013C012AE0BC01A20189EE7B
:103ED00096E00E94901369E771E089EE96E00E94F7
:103EE000E5142AE0B301A20183EE95E00E9490134D
:103EF00069E771E083EE95E00E94E514CE0101963A
:103F00000E946F1186E0FE013196DE015E960190FF
:103F10000D928A95E1F7C4010E94A302AB01BC0196
:103F20002AE089EE96E00E94901369E771E089EE3D
:103F300096E00E94E5144E8D50E04053584F70E0DB
:103F400060E02AE089EE96E00E9490136FE172E053
:103F500089EE96E00E94E5146F8D89EE96E00E944E
:103F6000DC136FE172E089EE96E00E94E51468A12F
:103F700089EE96E00E94DC1369EC72E089EE96E02F
:103F80000E94E51469A189EE96E00E94DC1366ECBC
:103F900072E089EE96E00E94E5146AA189EE96E04F
:103FA0000E94DC1366EC72E089EE96E00E94E51454
:103FB0006BA189EE96E00E94DC13C4010E94A3026B
:103FC000AB01BC012AE083EE95E00E94901369E703
:103FD00071E083EE95E00E94E5144E8D50E0405371
:103FE000584F70E060E02AE083EE95E00E94901365
:103FF0006FE172E083EE95E00E94E5146F8D83EE31
:1040000095E00E94DC136FE172E083EE95E00E9480
:10401000E51468A183EE95E00E94DC1369EC72E080
:1040200083EE95E00E94E51469A183EE95E00E947D
:10403000DC1366EC72E083EE95E00E94E5146AA161
:1040400083EE95E00E94DC1366EC72E083EE95E06F
:104050000E94E5146BA183EE95E00E94DC1369E7F2
:1040600071E089EE96E00E94E5146091480370913A
:10407000490389EE96E00E94E51468EC72E083EE55
:1040800095E00E94E514609148037091490383EE26
:1040900095E00E94E51469E771E089EE96E00E94E0
:1040A000E51460915E0370915F0389EE96E00E94D3
:1040B000E51469E771E083EE95E00E94E5146091F4
:1040C0005E0370915F0383EE95E00E94E51469E75B
:1040D00071E089EE96E00E94E5146AE473E089EEEF
:1040E00096E00E94E51469E771E083EE95E00E9496
:1040F000E5146AE473E083EE95E00E94E51469E755
:1041000071E089EE96E00E94E514409144035091DD
:104110004503609146037091470322E089EE96E0E3
:104120000E94E31369E771E083EE95E00E94E514D5
:1041300040914403509145036091460370914703B9
:1041400022E083EE95E00E94E31369E771E089EED7
:1041500096E00E94E5144091400350914103609124
:1041600042037091430322E089EE96E00E94E3133C
:1041700069E771E083EE95E00E94E5144091400309
:1041800050914103609142037091430322E083EE1A
:1041900095E00E94E3136EE671E089EE96E00E94DE
:1041A0005D136EE671E083EE95E00E945D1389EE8B
:1041B00096E00E94B50F0115110509F42ECE0E945C
:1041C0000002882309F429CE0E94000026CE822F07
:1041D0002BCE0E948A014090E5065090E606609042
:1041E000E7067090E806641575058605970508F4DE
:1041F00033CEE091E106F091E20609950E948A0132
:104200004090D9065090DA066090DB067090DC068C
:10421000DC01CB01840D951DA61DB71D8093E5061D
:104220009093E606A093E706B093E806F092D806CE
:10423000E092D70611CE0E948A014090E506509088
:10424000E6066090E7067090E80664157505860539
:10425000970508F401CEE091E306F091E406099594
:104260000E948A014090DD065090DE066090DF06D5
:104270007090E006DC01CB01840D951DA61DB71DD5
:104280008093E5069093E606A093E706B093E806D0
:104290001092D8061092D706DFCDBCEAEB16B6E036
:1042A000FB0609F465CCC7010E94AB0D61CC8823E5
:1042B00009F45ECCCE014E967C019E2D8F2D7501AA
:1042C000A92EB82EE8CBECEAEE16E6E0FE0609F4DD
:1042D0004FCCE9CF662777270C949A2149E257E023
:1042E0000E9473210895FA01A191B081009719F4F9
:1042F0001097E1F0CD01DC01CD010D90002011F40B
:10430000C00113C0FB012191222319F02015D9F718
:10431000F3CFFB012191201519F41E92119606C0CE
:104320002223C1F70D900020A1F7D001FA01A1933B
:10433000B0830895B0E0A0E0E0EAF1E20C944324F9
:104340005C017B016115710519F0DB018D939C9374
:1043500085010F5F1F4FF501D0818D2F90E00E94E6
:10436000EA226C01892BB9F5DD32B9F50F5F1F4FD9
:10437000D5011196DC91C1E05801F1E0AF1AB10806
:1043800043E050E068E970E0C5010E94F322892B08
:1043900069F5680182E0C80ED11C45E050E063E990
:1043A00070E0C6010E94F322892B21F4680197E096
:1043B000C90ED11CE114F10419F0D701CD92DC92A1
:1043C00060E070E080E89FEFC111FFC060E070E046
:1043D00080E89FE7FAC05801BBCFDB3229F48501A2
:1043E0000E5F1F4FF501D181C0E0C6CF43E050E022
:1043F00060E970E0C5010E94F322892BE9F0F80121
:1044000010E000E020E030E0A9015F01B0ED8B2E6C
:104410008D0E89E08815C8F19C2E689491F88C2F38
:104420008870C2FF16C0811102C00F5F1F4F319606
:10443000D501DC91C92DE9CFE114F10429F00E5F1B
:104440001F4FF7011183008360E070E080EC9FE76D
:10445000BCC0882311F001501109A5E0B0E00E9412
:1044600032249B01AC01220F331F441F551F280D1E
:10447000311D411D511D283999E93907490799E135
:104480005907A8F2C6609C2ED2CFAEEF8A1206C0A2
:10449000C3FD3CC09C2E689493F8C9CFDF7DD53412
:1044A000A9F580818D3239F4C061DF0112968181D6
:1044B00062E070E006C0DF018B32C1F3119661E06B
:1044C00070E080535D01A61AB70A8A30F8F4E0E87C
:1044D000CE16ECE0DE065CF4B601660F771F660FC1
:1044E000771FC60ED71ECC0CDD1CC80ED11C5D017B
:1044F000FFEFAF1ABF0A8C9180538A30A8F1C4FF36
:1045000003C0D194C194D1080C0D1D1DC1FF09C079
:10451000E114F10431F081E0A81AB108D701AD929D
:10452000BC92CA01B9010E941023C370C33009F4C0
:1045300090584B015C0120E030E0A9010E940B2360
:10454000882309F440C0C7ECD0E017FF05C01195DF
:1045500001951109CFEAD0E06E01B8E1CB1AD1087C
:1045600080E2E82EF12C0FC0D501B1CFFE012591DC
:104570003591459154910E191F09C501B4010E944E
:1045800071234B015C01D501C4010E151F0574F7A1
:104590002497F594E794CC16DD06A9F78A2F880FA7
:1045A0008B2F881F8F3F49F020E030E0A901C50123
:1045B000B4010E940B23811106C082E290E0909327
:1045C0002C0780932B07C501B401CDB7DEB7ECE013
:1045D0000C945F2491110C94DE23803219F08950E1
:1045E0008550C8F70895FB01DC014150504088F028
:1045F0008D9181341CF08B350CF4805E65916134B3
:104600001CF06B350CF4605E861B611171F3990B25
:104610000895881BFCCF0E944D2308F481E0089583
:10462000E89409C097FB3EF490958095709561954C
:104630007F4F8F4F9F4F9923A9F0F92F96E9BB2702
:104640009395F695879577956795B795F111F8CF7E
:10465000FAF4BB0F11F460FF1BC06F5F7F4F8F4FE9
:104660009F4F16C0882311F096E911C0772321F0DF
:104670009EE8872F762F05C0662371F096E8862F77
:1046800070E060E02AF09A95660F771F881FDAF7CE
:10469000880F9695879597F90895990F0008550FFB
:1046A000AA0BE0E8FEEF16161706E807F907C0F0B8
:1046B00012161306E407F50798F0621B730B840BC0
:1046C000950B39F40A2661F0232B242B252B21F49A
:1046D00008950A2609F4A140A6958FEF811D811D3A
:1046E00008950E9484230C94F8230E94EA2338F052
:1046F0000E94F12320F0952311F00C94E1230C94F7
:10470000E72311240C942C240E94092470F3959F14
:10471000C1F3950F50E0551F629FF001729FBB27B8
:10472000F00DB11D639FAA27F00DB11DAA1F649F54
:104730006627B00DA11D661F829F2227B00DA11D07
:10474000621F739FB00DA11D621F839FA00D611D8D
:10475000221F749F3327A00D611D231F849F600DAE
:10476000211D822F762F6A2F11249F5750409AF0D7
:10477000F1F088234AF0EE0FFF1FBB1F661F771F63
:10478000881F91505040A9F79E3F510580F00C942E
:10479000E1230C942C245F3FE4F3983ED4F38695F8
:1047A00077956795B795F795E7959F5FC1F7FE2BCE
:1047B000880F911D9695879597F9089599278827D1
:1047C000089597F99F6780E870E060E008959FEF93
:1047D00080EC089500240A94161617061806090698
:1047E000089500240A941216130614060506089567
:1047F000092E0394000C11F4882352F0BB0F40F4EF
:10480000BF2B11F460FF04C06F5F7F4F8F4F9F4F2E
:10481000089557FD9058440F551F59F05F3F71F0B0
:104820004795880F97FB991F61F09F3F79F0879517
:104830000895121613061406551FF2CF4695F1DFA0
:1048400008C0161617061806991FF1CF8695710530
:10485000610508940895E894BB2766277727CB0164
:1048600097F908950E947424A59F900DB49F900D10
:10487000A49F800D911D112408952F923F924F9275
:104880005F926F927F928F929F92AF92BF92CF92E0
:10489000DF92EF92FF920F931F93CF93DF93CDB7E9
:1048A000DEB7CA1BDB0B0FB6F894DEBF0FBECDBF61
:1048B00009942A88398848885F846E847D848C8432
:1048C0009B84AA84B984C884DF80EE80FD800C813B
:1048D0001B81AA81B981CE0FD11D0FB6F894DEBF1E
:1048E0000FBECDBFED010895A29FB001B39FC001DF
:1048F000A39F700D811D1124911DB29F700D811D0C
:104900001124911D0895A1E21A2EAA1BBB1BFD01C3
:104910000DC0AA1FBB1FEE1FFF1FA217B307E4079E
:10492000F50720F0A21BB30BE40BF50B661F771FF6
:10493000881F991F1A9469F76095709580959095D6
:104940009B01AC01BD01CF010895EE0FFF1F059043
:10495000F491E02D09945058BB27AA270E94C32444
:104960000C94F8230E94EA2338F00E94F12320F0EF
:1049700039F49F3F19F426F40C94E7230EF4E095E4
:10498000E7FB0C94E123E92F0E94092458F3BA179E
:10499000620773078407950720F079F4A6F50C9455
:1049A0002B240EF4E0950B2EBA2FA02D0B01B9018C
:1049B00090010C01CA01A0011124FF27591B99F095
:1049C000593F50F4503E68F11A16F040A22F232FA1
:1049D000342F4427585FF3CF469537952795A795F1
:1049E000F0405395C9F77EF41F16BA0B620B730B98
:1049F000840BBAF09150A1F0FF0FBB1F661F771F09
:104A0000881FC2F70EC0BA0F621F731F841F48F4BD
:104A1000879577956795B795F7959E3F08F0B0CF46
:104A20009395880F08F09927EE0F9795879508952D
:104A30000E942C250C94F8230E94F12358F00E9428
:104A4000EA2340F029F45F3F29F00C94E12351114F
:104A50000C942C240C94E7230E94092468F39923D6
:104A6000B1F3552391F3951B550BBB27AA2762176A
:104A70007307840738F09F5F5F4F220F331F441F77
:104A8000AA1FA9F335D00E2E3AF0E0E832D09150AB
:104A90005040E695001CCAF72BD0FE2F29D0660F98
:104AA000771F881FBB1F261737074807AB07B0E8DB
:104AB00009F0BB0B802DBF01FF2793585F4F3AF0E1
:104AC0009E3F510578F00C94E1230C942C245F3F19
:104AD000E4F3983ED4F3869577956795B795F79567
:104AE0009F5FC9F7880F911D9695879597F908954F
:104AF000E1E0660F771F881FBB1F621773078407EB
:104B0000BA0720F0621B730B840BBA0BEE1F88F7F9
:104B1000E095089529F416F00C94E1230C942B24CD
:104B20000C94E7230E941124A8F39638A0F707F805
:104B30000F92E8942BE33AEA48EB5FE70E94872361
:104B40000F920F920F924DB75EB70F920E9461269F
:104B5000E8E6F0E00E94F3254F915F91EF91FF911D
:104B6000E595EE1FFF1F49F0FE57E0684427EE0F62
:104B7000441FFA95E1F74195550B0E942B260F90A3
:104B800007FE0C941F2608950E94112488F09F5759
:104B900098F0B92F9927B751B0F0E1F0660F771F61
:104BA000881F991F1AF0BA95C9F714C0B13091F057
:104BB0000E942B24B1E008950C942B24672F782FAA
:104BC0008827B85F39F0B93FCCF38695779567951C
:104BD000B395D9F73EF490958095709561957F4F88
:104BE0008F4F9F4F0895DF93CF931F930F93FF92A3
:104BF000EF92DF927B018C01689406C0DA2EEF0100
:104C00000E948423FE01E894A59125913591459158
:104C10005591A6F3EF010E94C324FE019701A8015C
:104C2000DA9469F7DF90EF90FF900F911F91CF9189
:104C3000DF9108950E944D2308F48FEF08959B01A2
:104C4000AC0160E070E080E89FE30C9418250C94C0
:104C5000E1230C949A260E941124D8F39923C9F3D6
:104C6000940F511DA3F39150504094F059F08823B4
:104C700032F0660F771F881F91505040C1F79E3F5A
:104C800051052CF7880F911D9695879597F90895F2
:104C90005F3FACF0983E9CF0BB2786957795679573
:104CA000B79508F4B1609395C1F7BB0F58F711F4AD
:104CB00060FFE8CF6F5F7F4F8F4F9F4FE3CF0C9424
:104CC0002C24FA01DC01AA0FBB1F9B01AC01BF57CA
:104CD00028F4222733274427507820C0B75190F476
:104CE000AB2F0024469537952795011CA395D2F349
:104CF000002071F0220F331F441FB395DAF30ED05A
:104D00000C94AB2461307105A0E88A07B94630F4F1
:104D10009B01AC016627772788279078309621F091
:104D2000208331834283538308950E944D23880B4F
:104D3000990B08959F3F31F0915020F48795779516
:104D40006795B795880F911D9695879597F9089562
:104D50000F931F93CF93DF938230910510F482E07D
:104D600090E0E0912F07F091300730E020E0B0E0D4
:104D7000A0E0309799F42115310509F44AC0281BA9
:104D8000390B24303105D8F58A819B816115710575
:104D900089F1FB0193838283FE0111C0408151811F
:104DA0000281138148175907E0F04817590799F411
:104DB000109761F012960C93129713961C933296EB
:104DC000CF01DF91CF911F910F91089500932F078D
:104DD00010933007F4CF2115310551F042175307D6
:104DE00038F0A901DB019A01BD01DF01F801C1CF53
:104DF000EF01F9CF9093300780932F07CDCFFE01BD
:104E0000E20FF31F81939193225031093983288354
:104E1000D7CF20912D0730912E07232B41F42091DD
:104E200006013091070130932E0720932D07209122
:104E30000401309105012115310541F42DB73EB72C
:104E40004091080150910901241B350BE0912D0779
:104E5000F0912E07E217F307A0F42E1B3F0B281743
:104E6000390778F0AC014E5F5F4F2417350748F0E3
:104E70004E0F5F1F50932E0740932D078193919300
:104E80009FCFF0E0E0E09CCFCF93DF930097E9F075
:104E9000FC01329713821282A0912F07B091300744
:104EA000ED0130E020E01097A1F420813181820FE4
:104EB000931F20912D0730912E072817390709F0ED
:104EC00061C0F0932E07E0932D07DF91CF910895F5
:104ED000EA01CE17DF07E8F54A815B819E014115A3
:104EE0005105B1F7E901FB83EA8349915991C40F58
:104EF000D51FEC17FD0761F4808191810296840F24
:104F0000951FE90199838883828193819B838A839A
:104F1000F0E0E0E012968D919C9113970097B9F51F
:104F20002D913C911197CD010296820F931F2091F4
:104F30002D0730912E072817390739F6309751F58C
:104F40001092300710922F07B0932E07A0932D07D1
:104F5000BCCFD383C28340815181840F951FC81772
:104F6000D90761F44E5F5F4F88819981480F591FBF
:104F7000518340838A819B819383828321153105EC
:104F800009F0B0CFF0933007E0932F079ECFFD01DB
:104F9000DC01C0CF13821282D7CFFB01DC0104C039
:104FA0008D910190801921F441505040C8F7881B21
:104FB000990B0895DC0101C06D9341505040E0F71A
:104FC0000895FC018191861721F08823D9F799274C
:104FD00008953197CF010895FB01DC014150504005
:104FE00048F001900D920020C9F701C01D92415078
:104FF0005040E0F70895AEE0B0E0E1E0F8E20C9454
:105000004B240D891E8986E08C831A8309838FEFD8
:105010009FE79E838D83AE01475E5F4F6F89788DDA
:10502000CE0101960E941E282F813885020F131F82
:10503000F80110822E96E4E00C946724ABE0B0E017
:10504000E4E2F8E20C943D247C013B018A01FC017E
:1050500017821682838181FFC8C1CE0101965C014F
:10506000F7019381F30193FD859193FF81913F01B6
:10507000882309F453C1853239F493FD859193FF58
:1050800081913F01853229F4B70190E00E940E2AF8
:10509000E7CF912C212C312CFFE1F31538F08B3226
:1050A00011F190F4803209F1833229F137FC3CC0D0
:1050B00020ED280F2A3050F536FE20C08AE0989E59
:1050C000200D1124922E06C08D3291F0803371F79D
:1050D000689430F8F30193FD859193FF81913F012E
:1050E0008111DACF21C0689431F8689432F8F2CF98
:1050F000689433F8EFCF689434F8ECCFEAE02E9E52
:10510000200D1124222E689435F8E4CF8E3229F434
:1051100036FC04C1689436F8DDCF8C3619F46894F7
:1051200037F8D8CF8836B1F2982F9F7D95549330B9
:10513000E0F08336A1F18337C1F1833509F063C014
:105140002801F2E04F0E511CF801C080D180692D7A
:1051500070E036FC02C06FEF7FEFC6010E94F829B5
:105160004C01689437F882010AC00C5F1F4FFFE3BF
:10517000F98388248394912C6501E89437F833FEF1
:105180002DC0522C8114910471F5552009F468CF7B
:10519000B70180E290E00E940E2A5A94F6CFF801FF
:1051A000808189830E5F1F4FE4CF2801F2E04F0E0C
:1051B000511CF801C080D180692D70E036FC02C01E
:1051C0006FEF7FEFC6010E94032A4C018201D5CF09
:1051D000B70180E290E00E940E2A2A942814190454
:1051E00009F0B0F7CECFF60137FC859137FE8191FB
:1051F0006F01B70190E00E940E2A51105A94F1E01D
:105200008F1A9108BFCF843619F0893609F077C01C
:10521000F80137FE6BC060817181828193810C5FE0
:105220001F4FF32DFF763F2E97FF09C09095809575
:10523000709561957F4F8F4F9F4F689437F82AE0A4
:1052400030E0A5010E943E2AC82ECA188C2C432C9F
:1052500036FE0CC0E89440F8C91440F434FE05C092
:1052600032FC03C0F32DFE7E4F2E892C44FE95C0E8
:10527000FE01EC0DF11D8081803309F087C0242DE3
:10528000297E422E842D8870582E43FC95C040FE06
:105290008FC09C2C821418F42C0C922C981844FE6D
:1052A00091C0B70180E390E00E940E2A42FE09C03F
:1052B00088E790E041FE02C088E590E0B7010E94D7
:1052C0000E2AC91408F48AC0CA94D12C9FEFC91AB7
:1052D000D90ACA0CDB1CF60182916F01B70190E07C
:1052E0000E940E2AAC14BD04B1F74FCF60817181CA
:1052F000072E000C880B990B0E5F1F4F92CFD32CFB
:10530000E894D4F82AE030E0853739F1232D297F5D
:10531000D22E8F3601F148F48835A9F0F701868145
:1053200097812B96E2E10C945924803749F0883715
:10533000A9F7D4FE02C06894D2F820E130E00DC095
:105340006894D4F8F6CF34FE03C0822F8660D82E3E
:1053500020E132E002C028E030E0F801D7FE0FC0C3
:1053600060817181828193810C5F1F4FA5010E9432
:105370003E2AC82ECA183D2CE89437F867CF6081C2
:10538000718190E080E00E5F1F4FF0CF42FC02C0C1
:10539000839478CF8394839475CF842D867809F491
:1053A00071CFF6CFB70180E290E00E940E2A83947D
:1053B0008214C0F3512C73CF522C5818821408F465
:1053C0006ECFF8CF842D867809F47BCF8BE241FE37
:1053D00080E247FC8DE2B70190E071CFB70180E336
:1053E00090E00E940E2A9A946CCF8FEF9FEF99CF96
:1053F000FC010590615070400110D8F780959095A0
:105400008E0F9F1F0895FC016150704001900110A4
:10541000D8F7809590958E0F9F1F08950F931F9337
:10542000CF93DF93182F092FEB018B8181FD09C0EA
:105430001FEF0FEF812F902FDF91CF911F910F91D1
:10544000089582FF14C02E813F818C819D81281791
:1054500039073CF4E881F981CF010196998388836B
:1054600010838E819F8101969F838E83E3CFE88591
:10547000F985812F0995892BA1F3DACFFA01AA27A3
:10548000283051F1203181F1E8946F936E7F6E5F87
:105490007F4F8F4F9F4FAF4FB1E03ED0B4E03CD035
:1054A000670F781F891F9A1FA11D680F791F8A1F18
:1054B000911DA11D6A0F711D811D911DA11D20D07F
:1054C00009F468943F912AE0269F11243019305D39
:1054D0003193DEF6CF010895462F4770405D41932A
:1054E000B3E00FD0C9F7F6CF462F4F70405D4A3377
:1054F00018F0495D31FD4052419302D0A9F7EACF3F
:10550000B4E0A6959795879577956795BA95C9F76D
:1055100000976105710508959B01AC010A2E069460
:105520005795479537952795BA95C9F7620F731F19
:0C553000841F951FA01D0895F894FFCF64
:10553C00FFFFFFFF00003107800000004000140057
:10554C0054000000000036029601C3018302F401EE
:10555C00D201E60100000000CD05A005100676057D
:10556C0099058605770500000000530F96014D0D37
:10557C00B40F000000000B10EE0FDE0FB50FBE0FC6
:10558C0041114B1100000000EB1296011006B40FF4
:10559C0072006E616E00696E66006F7666000D0AB1
:1055AC00006572726F723A20002C0048554D006FE6
:1055BC0032006F2C742C31006F2C6465772C30000A
:1055CC00534554555020434F4D504C45544500497C
:1055DC006E697469616C697A696E672053442063E3
:1055EC006172642E2E2E006361726420696E697480
:1055FC0069616C697A65642E00253034642530321B
:10560C0064253032645F25303264253032642530B5
:10561C0032645F6C6F6766696C652E6373760043EA
:10562C00617264206661696C65642C206F72206EF7
:10563C006F742070726573656E740046696C6520BA
:10564C00616C726561647920657869737473002F7D
:10565C0000636F756C646E74206372656174652091
:10566C0066696C65004C6F6767696E6720746F3A8A
:10567C002000525443206661696C6564006D696C4E
:10568C006C69732C7374616D702C646174657469CE
:10569C006D652C74656D702C2048554D2C204F3247
:1056AC002C206832302870706D292C6F3228707065
:1056BC006D29006D696C6C69732C7374616D702C41
:1056CC006461746574696D652C74656D702C4855D6
:1056DC004D2C204F322C2068756D2870706D292C44
:1056EC006F322870706D290048554D3A20002025E6
:0C56FC00004F323A20003A002C20000041
:00000001FF
